:10100000008E002055D50100BDDB020041D5010056
:1010100041D5010041D5010041D50100000000008B
:10102000000000000000000000000000F1D60100F8
:1010300041D50100000000005DD6010041D501004E
:10104000ADD90100E92C0200ADD90100ADD90100F4
:10105000ADD90100ADD90100ADD90100ADD9010074
:10106000ADD90100ADD9010089600200ADD9010000
:10107000ADD90100ADD90100ADD90100ADD9010054
:10108000ADD90100ADD90100ADD90100ADD9010044
:101090004D2D0200ADD90100ADD90100ADD901003F
:1010A000ADD90100ADD90100ADD90100ADD9010024
:1010B000ADD90100ADD90100ADD90100ADD9010014
:1010C000ADD90100ADD90100ADD90100ADD9010004
:1010D000ADD90100ADD90100ADD90100ADD90100F4
:1010E000ADD90100ADD90100ADD90100ADD90100E4
:1010F000ADD90100ADD90100ADD90100ADD90100D4
:10110000014B1B685B68184700050020014B1B68FA
:101110009B68184700050020014B1B681B69184796
:1011200000050020014B1B685B6918470005002083
:10113000014B1B689B69184700050020014B1B6889
:10114000DB69184700050020014B1B681B6A184724
:1011500000050020014B1B689B6A18470005002012
:1011600030B4044C9DF8085024680295E468A44605
:1011700030BC60470005002030B50246114890F9A8
:101180001C3093421ADD90F92430934218DAD31AB6
:10119000856A0D4CE85C235693420ED00E3400292C
:1011A0000CBF0346431CA542D8B206D129B1013A6F
:1011B000D2B2012A01D80130C0B230BD0D20FCE707
:1011C0000020FAE7880D0020ECF5020008B5054B79
:1011D00093F91C30984203DAFFF7CEFF024B1B56FF
:1011E000184608BD880D0020ECF5020010B51C4C17
:1011F00094F82C3073B9012384F82C3000F09EF859
:1012000048B1184BA362D823236284F82430082302
:10121000A361237710BD00F0A7F80028F1D100F0FA
:10122000ADF80028EDD100F06BF838B10E4BA36299
:10123000D823236284F824300423E9E700F06AF815
:101240000028F3D100F070F80028EFD100F080F80A
:101250000028EBD140F2BF11742000F019F800BF54
:10126000880D002027F60200FAF50200BFF34F8F29
:101270000549064BCA6802F4E0621343CB60BFF332
:101280004F8F00BFFDE700BF00ED00E00400FA054E
:101290001FB572B6134B5D688DB9FFF7E7FFB2FB60
:1012A000F6F2DCB20133002AF9D104F110036B44E9
:1012B00003F80C2C0A2234B901A8A847EDE702462E
:1012C00000230A26EDE7631E04AEDCB256FA83F370
:1012D000B0FBF2F602FB1600303003F80C0C30467F
:1012E000E9E700BF281200204FF08052034BD2F8EC
:1012F00030111960D2F834215A607047641200200E
:10130000034B1868A0F10F0358425841704700BFC3
:1013100064120020034B1868A0F10A035842584198
:10132000704700BF64120020034B1868A0F10E0341
:1013300058425841704700BF64120020034B1868A0
:10134000A0F1100358425841704700BF64120020BA
:10135000044B1868062803D0431C58425841704774
:101360000120704764120020034B1868A0F10D03A0
:1013700058425841704700BF64120020034B186860
:10138000A0F1080358425841704700BF6412002082
:1013900081F0004102E000BF83F0004330B54FEA26
:1013A00041044FEA430594EA050F08BF90EA020F93
:1013B0001FBF54EA000C55EA020C7FEA645C7FEA26
:1013C000655C00F0E2804FEA5454D4EB5555B8BF49
:1013D0006D420CDD2C4480EA020281EA030382EABA
:1013E000000083EA010180EA020281EA0303362D4C
:1013F00088BF30BD11F0004F4FEA01314FF4801C1F
:101400004CEA113102D0404261EB410113F0004F30
:101410004FEA03334CEA133302D0524263EB4303E7
:1014200094EA050F00F0A780A4F10104D5F1200E85
:101430000DDB02FA0EFC22FA05F2801841F10001E0
:1014400003FA0EF2801843FA05F359410EE0A5F1B4
:1014500020050EF1200E012A03FA0EFC28BF4CF0E5
:10146000020C43FA05F3C01851EBE37101F000459B
:1014700007D54FF0000EDCF1000C7EEB00006EEBA8
:101480000101B1F5801F1BD3B1F5001F0CD3490832
:101490005FEA30004FEA3C0C04F101044FEA445289
:1014A00012F5800F80F09A80BCF1004F08BF5FEA10
:1014B000500C50F1000041EB045141EA050130BDF0
:1014C0005FEA4C0C404141EB0101013C28BFB1F502
:1014D000801FE9D291F0000F04BF01460020B1FA4D
:1014E00081F308BF2033A3F10B03B3F120020CDA20
:1014F0000C3208DD02F1140CC2F10C0201FA0CF0FE
:1015000021FA02F10CE002F11402D8BFC2F1200C62
:1015100001FA02F120FA0CFCDCBF41EA0C01904018
:10152000E41AA2BF01EB0451294330BD6FEA040461
:101530001F3C1CDA0C340EDC04F11404C4F120024C
:1015400020FA04F001FA02F340EA030021FA04F35E
:1015500045EA030130BDC4F10C04C4F1200220FAB5
:1015600002F001FA04F340EA0300294630BD21FAF3
:1015700004F0294630BD94F0000F83F4801306BFB9
:1015800081F480110134013D4EE77FEA645C18BFAD
:101590007FEA655C29D094EA050F08BF90EA020F44
:1015A00005D054EA000C04BF1946104630BD91EA3C
:1015B000030F1EBF0021002030BD5FEA545C05D13F
:1015C0004000494128BF41F0004130BD14F580047E
:1015D0003CBF01F5801130BD01F0004545F0FE41F2
:1015E00041F470014FF0000030BD7FEA645C1ABF27
:1015F000194610467FEA655C1CBF0B46024650EA5E
:10160000013406BF52EA033591EA030F41F4002189
:1016100030BD00BF90F0000F04BF0021704730B50F
:101620004FF4806404F132044FF000054FF00001E4
:1016300050E700BF90F0000F04BF0021704730B5A5
:101640004FF4806404F1320410F0004548BF40427A
:101650004FF000013EE700BF42004FEAE2014FEACF
:1016600031014FEA02701FBF12F07F4393F07F4FAA
:1016700081F06051704732F07F4208BF704793F0AD
:101680007F4F04BF41F40021704730B54FF46074C0
:1016900001F0004521F000411CE700BF50EA0102C3
:1016A00008BF704730B54FF000050AE050EA01026C
:1016B00008BF704730B511F0004502D5404261EBDC
:1016C00041014FF4806404F132045FEA915C3FF41D
:1016D000D8AE4FF003025FEADC0C18BF03325FEABA
:1016E000DC0C18BF033202EBDC02C2F1200300FA6B
:1016F00003FC20FA02F001FA03FE40EA0E0021FA90
:1017000002F11444BDE600BF70B54FF0FF0C4CF47D
:10171000E06C1CEA11541DBF1CEA135594EA0C0F2F
:1017200095EA0C0F00F0DEF82C4481EA030621EA6A
:101730004C5123EA4C5350EA013518BF52EA0335A5
:1017400041F4801143F4801338D0A0FB02CE4FF057
:101750000005E1FB02E506F00042E0FB03E54FF087
:101760000006E1FB03569CF0000F18BF4EF0010E7F
:10177000A4F1FF04B6F5007F64F5407404D25FEA7B
:101780004E0E6D4146EB060642EAC62141EA55512E
:101790004FEAC52040EA5E504FEACE2EB4F1FD0C70
:1017A00088BFBCF5E06F1ED8BEF1004F08BF5FEAEE
:1017B000500E50F1000041EB045170BD06F00046A0
:1017C00046EA010140EA020081EA0301B4EB5C044D
:1017D000C2BFD4EB0C0541EA045170BD41F4801145
:1017E0004FF0000E013C00F3AB8014F1360FDEBF6A
:1017F000002001F0004170BDC4F10004203C35DA46
:101800000C341BDC04F11404C4F1200500FA05F3C8
:1018100020FA04F001FA05F240EA020001F0004269
:1018200021F0004110EBD37021FA04F642EB0601DF
:101830005EEA430E08BF20EAD37070BDC4F10C0409
:10184000C4F1200500FA04F320FA05F001FA04F2CD
:1018500040EA020001F0004110EBD37041F10001B9
:101860005EEA430E08BF20EAD37070BDC4F12005C4
:1018700000FA05F24EEA020E20FA04F301FA05F22C
:1018800043EA020321FA04F001F0004121FA04F2D4
:1018900020EA020000EBD3705EEA430E08BF20EAA4
:1018A000D37070BD94F0000F0FD101F000464000DE
:1018B00041EB010111F4801F08BF013CF7D041EA60
:1018C000060195F0000F18BF704703F00046520064
:1018D00043EB030313F4801F08BF013DF7D043EA35
:1018E0000603704794EA0C0F0CEA135518BF95EAEB
:1018F0000C0F0CD050EA410618BF52EA4306D1D172
:1019000081EA030101F000414FF0000070BD50EA90
:10191000410606BF1046194652EA430619D094EA1A
:101920000C0F02D150EA013613D195EA0C0F05D104
:1019300052EA03361CBF104619460AD181EA030158
:1019400001F0004141F0FE4141F470014FF0000010
:1019500070BD41F0FE4141F4780170BD70B54FF0AB
:10196000FF0C4CF4E06C1CEA11541DBF1CEA13552B
:1019700094EA0C0F95EA0C0F00F0A7F8A4EB05040D
:1019800081EA030E52EA03354FEA013100F0888004
:101990004FEA03334FF0805545EA131343EA1263CD
:1019A0004FEA022245EA111545EA10654FEA002682
:1019B0000EF000419D4208BF964244F1FD0404F53B
:1019C000407402D25B084FEA3202B61A65EB030597
:1019D0005B084FEA32024FF480104FF4002CB6EB54
:1019E000020E75EB030E22BFB61A754640EA0C00D4
:1019F0005B084FEA3202B6EB020E75EB030E22BF14
:101A0000B61A754640EA5C005B084FEA3202B6EB54
:101A1000020E75EB030E22BFB61A754640EA9C0013
:101A20005B084FEA3202B6EB020E75EB030E22BFE3
:101A3000B61A754640EADC0055EA060E18D04FEAA1
:101A4000051545EA16754FEA06164FEAC30343EA41
:101A500052734FEAC2025FEA1C1CC0D111F4801F0E
:101A60000BD141EA00014FF000004FF0004CB6E707
:101A700011F4801F04BF01430020B4F1FD0C88BFA6
:101A8000BCF5E06F3FF6AFAEB5EB030C04BFB6EBB1
:101A9000020C5FEA500C50F1000041EB045170BDA4
:101AA0000EF0004E4EEA113114EB5C04C2BFD4EBD1
:101AB0000C0541EA045170BD41F480114FF0000E55
:101AC000013C90E645EA060E8DE60CEA135594EAD1
:101AD0000C0F08BF95EA0C0F3FF43BAF94EA0C0FD4
:101AE0000AD150EA01347FF434AF95EA0C0F7FF449
:101AF00025AF104619462CE795EA0C0F06D152EA9D
:101B000003353FF4FDAE1046194622E750EA410680
:101B100018BF52EA43067FF4C5AE50EA41047FF491
:101B20000DAF52EA43057FF4EBAE12E74FF0FF3CF6
:101B300006E000BF4FF0010C02E000BF4FF0010CC7
:101B40004DF804CD4FEA410C7FEA6C5C4FEA430C40
:101B500018BF7FEA6C5C1BD001B050EA410C0CBF8F
:101B600052EA430C91EA030F02BF90EA020F0020F1
:101B7000704710F1000F91EA030F58BF994208BF58
:101B800090422CBFD8176FEAE37040F00100704715
:101B90004FEA410C7FEA6C5C02D150EA013C07D16C
:101BA0004FEA430C7FEA6C5CD6D152EA033CD3D0B7
:101BB0005DF8040B704700BF8446104662468C46B1
:101BC0001946634600E000BF01B5FFF7B7FF0028E4
:101BD00048BF10F1000F01BD4DF808EDFFF7F4FF0D
:101BE0000CBF012000205DF808FB00BF4DF808ED98
:101BF000FFF7EAFF34BF012000205DF808FB00BFBB
:101C00004DF808EDFFF7E0FF94BF012000205DF8DC
:101C100008FB00BF4DF808EDFFF7CEFF94BF012091
:101C200000205DF808FB00BF4DF808EDFFF7C4FF8A
:101C300034BF012000205DF808FB00BF4FEA410CD3
:101C40007FEA6C5C02D150EA013C0AD14FEA430CB6
:101C50007FEA6C5C02D152EA033C02D14FF00000F3
:101C600070474FF0010070474FEA410212F5001231
:101C700015D211D56FF47873B3EB625212D94FEAD3
:101C8000C12343F0004343EA505311F0004F23FABD
:101C900002F018BF404270474FF00000704750EA12
:101CA000013005D111F0004008BF6FF000407047CF
:101CB0004FF00000704700BF4FEA4102B2F1E0432D
:101CC00024BFB3F5001CDCF1FE5C0DD901F0004C23
:101CD0004FEAC0024CEA5070B2F1004F40EB830073
:101CE00008BF20F00100704711F0804F21D113F19F
:101CF0003872BCBF01F00040704741F480114FEAD8
:101D00005252C2F11802C2F1200C10FA0CF320FA60
:101D100002F018BF40F001004FEAC1234FEAD3237D
:101D200003FA0CFC40EA0C0023FA02F34FEA4303E7
:101D3000CCE77FEA625307D150EA01331EBF4FF070
:101D4000FE4040F44000704701F0004040F0FE408B
:101D500040F40000704700BF7BB972B90029BEBFD4
:101D600000204FF0004106E008BF00281CBF6FF0C4
:101D700000414FF0FF3000F057B8ADF1080C6DE9AD
:101D800004CE002909DB002B1ADB00F0B0F8DDF8E7
:101D900004E0DDE9022304B07047404261EB4101F9
:101DA000002B1BDB00F0A3F8DDF804E0DDE90223E3
:101DB00004B0404261EB4101524263EB4303704780
:101DC000524263EB430300F092F8DDF804E0DDE9F2
:101DD000022304B0404261EB41017047524263EB81
:101DE000430300F084F8DDF804E0DDE9022304B0E9
:101DF000524263EB4303704753B94AB9002908BF05
:101E000000281CBF4FF0FF314FF0FF3000F00CB83E
:101E1000ADF1080C6DE904CE00F069F8DDF804E0DE
:101E2000DDE9022304B07047704700BF08B5FFF733
:101E30005BFABDE80840FFF7D9B970B5841A04F31E
:101E400007040E4660B259B21546FFF7BFF90023EA
:101E500030702844737040B270BD00230360704737
:101E60007047002070474FF0FF3070474FF0FF3051
:101E7000704770474FF0FF307047002070470020D8
:101E800070470023037070479DF800300022FFF771
:101E9000D4BF002070474FF0FF3070474FF0FF3045
:101EA00070474FF0FF307047704700280CBF6FF04D
:101EB00015000020704700207047072303700020A2
:101EC0007047002070470020704710F8012B11F870
:101ED000013B012A28BF9A42F7D0D01A7047034627
:101EE00013F8012B002AFBD1181A013870472DE98D
:101EF000F04786468C460846089E154674461946A5
:101F0000002B40F0C2808542B2FA82F245D94AB134
:101F1000C2F1200300FA02FC2EFA03F3954043EAD3
:101F20000C0C94404FEA154EA8B2BCFBFEF8230CF3
:101F30000EFB18CC08FB00F943EA0C43994528D95D
:101F4000EB1808F1FF3704D2994502D9A8F102072E
:101F50002B44A3EB0903A4B2B3FBFEFC0EFB1C3322
:101F60000CFB00F044EA0344A04214D92C190CF1F4
:101F7000FF3304D2A04202D9ACF102032C44241A4C
:101F800043EA07401EB1D440002334607360BDE8CB
:101F9000F0874746DDE76346F1E792BB431B01212B
:101FA0004FEA154EAFB2B3FBFEFC200C0EFB1C3308
:101FB0000CFB07F840EA0343984562D9EB180CF193
:101FC000FF3004D2984502D9ACF102002B44A3EBB8
:101FD0000803A4B2B3FBFEFC0EFB1C330CFB07F79B
:101FE00044EA0344A7424ED92C190CF1FF3304D222
:101FF000A74202D9ACF102032C44E41B43EA00409F
:10200000C0E7C2F1200320FA03F1954090402EFA78
:1020100003F303434FEA154EAFB2B1FBFEFC0EFBD8
:102020001C10190C0CFB07F841EA0041884504FA22
:1020300002F422D969180CF1FF3004D2884502D984
:10204000ACF102002944A1EB08019BB2B1FBFEFCFC
:102050000EFB1C110CFB07F743EA01439F420ED90C
:10206000EB180CF1FF3104D29F4202D9ACF102010E
:102070002B44DB1B41EA004192E76046E3E76146FF
:10208000F7E76046A3E76346B7E7834206D916B988
:10209000002108467BE7C6E900E0F9E7B3FA83F7D9
:1020A0008FB9834201D3724508D8BEEB020460EBBE
:1020B000030301209C461EB9002168E73846FAE771
:1020C000C6E9004CF8E7C7F1200CBB4022FA0CF43B
:1020D0001C432EFA0CF120FA0CF3B84001434FEAEE
:1020E00014490EFA07F5B3FBF9F81FFA84FE09FB51
:1020F00018300B0C08FB0EFA43EA00439A4502FA2B
:1021000007F240D9E31808F1FF3004D29A4502D90A
:10211000A8F102002344A3EB0A0389B2B3FBF9F848
:1021200009FB183308FB0EFE41EA03418E452CD90A
:10213000611808F1FF3304D28E4502D9A8F10203D9
:10214000214443EA0040A0FB0298A1EB0E01414567
:10215000CE46434602D306D14D4504D2B9EB020E1A
:1021600068EB04030138002EA6D0B5EB0E0261EB3C
:10217000030101FA0CFC22FA07F34CEA0303F940CD
:10218000C6E9003198E74046C5E74346D9E7000075
:10219000F0B514461A4AA0FB020302FB0131C00B42
:1021A00085B040EA414014A3D3E90023C90BFFF7EF
:1021B00023FE0546194610460023124AFFF71CFE6F
:1021C00006461946104600230D4AFFF715FE07463E
:1021D0001946104600234FF47A72FFF70DFE009760
:1021E000CDE90102334608482A4621462AF080FDFF
:1021F00005B0F0BDAFF3008000A493D6000000004E
:1022000040420F0000879303EC0C03000000000025
:102210002DE9F04FC7B014F087F838B14FF0804384
:102220005722C3F81C25002013F072FC1AF010FC92
:1022300018F048FA0446002840F0D680002140F605
:10224000CD4026F0E3FD6A486A4D2AF051FD272370
:10225000CDE901430E23684800930C221D2340F270
:10226000E9712AF045FD05F021FE644B644C1868C5
:102270001B798DF84C30634B129018681B798DF8E0
:102280005430614B14909A8818689B798DF87E3091
:102290005E4BADF87C209A88ADF884205C4A1E9095
:1022A000186851689B79209010688DF8863026ABAD
:1022B00003C3584B584A186851681B791690106828
:1022C0008DF85C3028AB03C312891A80534B186811
:1022D0009A889B798DF88E30514B2290CDE9094335
:1022E000504BADF88C2018681B798DF864304E4B3C
:1022F000189018689B88ADF874304C4B0B934C4B7E
:102300004C4A1C90186851681B791A9010688DF817
:102310006C302BAB03C31189927A19809A70464BAB
:102320000C93A3F54023454AA3F61973CDE90D3468
:10233000434B10685168CDE90F352EAB03C390684D
:102340001860404B34AA03F108061868596814460F
:1023500003C40833B3422246F7D13B4A18682060D1
:102360001B7910685168237131AB03C39068186002
:10237000364B38AA03F1080618685968144603C496
:102380000833B3422246F7D118681B792371304BCA
:1023900020609A8818689B7911952490ADF8942054
:1023A0008DF896301AF03CFB14220746002141A814
:1023B0002CF0DFFB052241A9384606F0C9F9064694
:1023C0000028EFD0419805F061FD012E02D042981F
:1023D00005F05CFDDDF8048112A94046FFF775FDAC
:1023E000C0BB05F063FDDDE7012026F04BFD1FE7D4
:1023F000800D0300616C6C00AB0D03001E13030025
:102400006D616700D8520300231303002A130300F1
:102410008751030052490300311303003B130300AB
:10242000736574004213030047130300646675006C
:10243000E01303004D1303007A726F00581303007A
:102440006261740064130300711303007D130300C1
:102450008A13030014A94046FFF737FD05460028FC
:1024600040F01182CA48CB4C2AF042FC2723CDE928
:1024700001530E230C2240F2E971C74800931D233B
:102480002AF036FCC5482AF033FCC5482AF030FC57
:10249000C4482AF02DFCC4482AF02AFC2368B3F86B
:1024A000763303F07F037F2B00F0B48110F0FEF849
:1024B0000146BE482AF01CFC236893F87A33FF2BB0
:1024C00008D013F0800FBA4BBA49BB4818BF194661
:1024D0002AF00EFC2368B94893F87A23B3F87613F0
:1024E0002AF006FC2368B3F8783303F07F037F2BD0
:1024F00000F0928110F0EAF80146B1482AF0F8FBAA
:10250000236893F87B23FF2A10D012F0800FB3F8D2
:102510007833A74AA749AB4818BF114613F0800F7C
:10252000A94BAA4A18BF1A462AF0E2FB2368A3481F
:1025300093F87B23B3F878132AF0DAFBA44B1B68DB
:10254000DB889A0640F16A81A248DFF8C4A22AF02B
:10255000CFFB0027266806EB87060137D6F8440133
:10256000FFF77AF88046D6F868018946FFF774F8D5
:10257000CDE90401D6F85C01FFF76EF8CDE9020160
:10258000D6F85001FFF768F84246CDE900014B4606
:1025900050462AF0ADFB032FDCD1D4F80080DFF8E1
:1025A0007092D8F8FC00FFF757F80646D8F80401F7
:1025B0000F46FFF751F8CDE90201D8F80001FFF707
:1025C0004BF83246CDE900013B4683482AF090FBA8
:1025D00082482AF08DFB236803EB85080135D8F883
:1025E0001401FFF739F80646D8F838010F46FFF70F
:1025F00033F8CDE90401D8F82C01FFF72DF8CDE927
:102600000201D8F82001FFF727F83246CDE9000192
:102610003B4648462AF06CFB032DDCD110F066F8EF
:1026200001466F482AF064FB5F482AF061FB23688B
:102630006C4893F8655093F866106B4B002D08BFFB
:1026400018462AF055FB4FF080526848D2F8A8305F
:10265000D2F8A4209BB22AF04BFB22686449D2F83E
:1026600069306448B2F86720002D18BF084642EA76
:1026700003421B0C2AF03CFB4B482AF039FB12F0BA
:10268000B3F8834612F0BEF812F00CF8824612F04E
:10269000BFF807460E4612F0ADF90546894612F01E
:1026A000BDF8BBF1000F0446884640F3DD802CF0F6
:1026B000E7F9514AC01B61EB0603A0FB020102FBD4
:1026C0000311C00B40EA41402FA3D3E90023C90BFB
:1026D000FFF792FB1946064600231046474AFFF7CC
:1026E0008BFB074650461EB9FBB2002B00F0B080B2
:1026F000FEF7A0FF424B0022FFF730F9CDE900675B
:1027000002460B463F482AF0F3FA55EA090300F067
:10271000B280394BA5FB030103FB0911C00B40EA52
:10272000414019A3D3E90023C90BFFF765FB054618
:10273000194610460023314AFFF75EFB2946024640
:1027400031482AF0D5FA54EA080300F098802A4B61
:10275000A4FB030103FB0811C00B40EA41400AA39C
:10276000D3E90023C90BFFF747FB0446194610467F
:102770000023224AFFF740FB0246244821462AF064
:10278000B7FA0FE6AFF3008000A493D60000000074
:10279000060E030010070020AB0D0300290E0300F6
:1027A0003F0E03004E0E03003B5A0300710E030060
:1027B000180D03001C0D03007A0E0300890E0300A0
:1027C0009E0E0300B10E0300200D03003C5A0300CF
:1027D0000C070020C20E0300140F0300340F030087
:1027E0004A0F03002B0D03003B0D0300570F03009E
:1027F0004D0D0300680D030040420F000087930356
:1028000000005940700F0300CB0F03000B100300B2
:10281000DA0E0300C1494CE6C0496EE6D4F80080E8
:10282000D8F8F000FEF718FF0646D8F8F8000F4673
:10283000FEF712FFCDE90201D8F8F400FEF70CFF15
:102840003246CDE900013B46B5482AF051FAA4E6EC
:10285000FEF7F0FEB34B0022FFF780F802460B466E
:10286000B1482AF045FA50E73E430CBFAF48B048A4
:102870002AF03EFA49E7AF482AF03AFA63E7AE4851
:102880002AF036FA8EE51EA94046FFF71EFBB0B9C6
:102890002CF0F6F8A94A0D460446FFF779FCA84B40
:1028A0001B68D3E90401D3E90223801A61EB030119
:1028B0000019A44A41EB0501FFF76AFC72E520A963
:1028C0004046FFF702FB10B913F022F96AE526A98A
:1028D0004046FFF7FAFA002840F00D8111F07EFF24
:1028E000014699482AF004FA11F07EFF804611F063
:1028F00089FF814611F0D6FE064611F089FFB8F136
:10290000000F04460D4640F3D6803046FEF792FE97
:10291000844B0022FFF722F8064648460F46CDF8C2
:102920000880FEF787FE7F4B0022FFF717F832463C
:10293000CDE900013B4685482AF0DAF954EA05035F
:1029400000F0BD802CF09CF8001B814A61EB050172
:10295000FFF71EFC11F062FF8146884611F0AEFFC2
:1029600007460E4611F0F8FF05460C4612F042F8F5
:1029700050EA010300F0A780764AFFF709FC59EA04
:10298000080300F0A480744A48464146FFF700FC63
:1029900057EA060300F09F80704A38463146FFF739
:1029A000F7FB55EA040300F09A806D4A2846214659
:1029B000FFF7EEFB29F0CCFA054629F0D6FA0446DB
:1029C000284611F06FFE8246204611F06BFE8046CD
:1029D00029F0D8FA45EA04031B0407460E4600F125
:1029E000828050EA01037ED04046FEF723FE4D4B25
:1029F0000022FEF7B3FF804628468946FEF71AFEFE
:102A0000484B0022FEF7AAFFCDE904012046FEF75D
:102A100011FE444B0022FEF7A1FFCDE90201504612
:102A2000FEF708FE3F4B0022FEF798FF4246CDE935
:102A300000014B464B482AF05BF94B4A3846314679
:102A4000FFF7A6FB12F03CF8064612F05FF80446CA
:102A500012F074F844EA00030746180447D42046ED
:102A6000FEF7E8FD2F4B0022FEF778FF06EB860607
:102A70000446F0B20D46FEF7CDFDCDE90201384621
:102A8000FEF7D8FD274B0022FEF768FF2246CDE96E
:102A900000012B4635482AF02BF911F0EDFFFEF727
:102AA000B9FD334B0022FEF759FF02460B46314871
:102AB0002AF01EF976E430482AF01AF93EE72F484A
:102AC0002AF016F946E71B482AF012F957E71A4888
:102AD0002AF00EF95CE72A482AF00AF961E729484A
:102AE0002AF006F966E728482AF002F9AAE72748FB
:102AF0002AF0FEF8D1E716A94046FFF7E6F918B923
:102B0000012011F0AFFA4DE428A94046FFF7DDF9A6
:102B100000283DD107F038FC44E400BF0A0D030053
:102B2000EF0E030000005940960F0300A70F0300AB
:102B300099100300E90F03002D1003005310030048
:102B4000100700205A1003006610030072100300E3
:102B5000A8100300CA100300DD100300F3100300E7
:102B6000231103005311030093110300C21103004A
:102B7000000034400712030098100300B510030052
:102B80000311030033110300A6110300F311030026
:102B900022A94046FFF799F910B907F0FFFB01E4BD
:102BA00009A94046FFF791F928B90121002006F054
:102BB000F3F9FFF7F7BB0AA94046FFF786F900BB18
:102BC000022E01D0AB485BE64298102128F0F2FCBF
:102BD000A94ACDE9000105460C463CA811212AF07E
:102BE00094F855EA04030AD042993CA8FFF76DF91E
:102BF00028B92846214605F08FF8FFF7D3BB9F4838
:102C00003EE618A94046FFF760F918B905F076F8D6
:102C1000FFF7C8BB1CA94046FFF757F918B905F0E4
:102C2000D7F8FFF7BFBB0BA94046FFF74EF928B90D
:102C30004FF080435722C3F81C2545E61AA94046A9
:102C4000FFF743F920BB2BF01BFF4FF4C3620023B7
:102C5000FFF782F8104619464E220023FFF77CF852
:102C600004461946104600230D22FFF775F8844BE1
:102C70008449D2B2C0B253F82230834AE4B252F847
:102C8000202051F8241081482AF032F8FFF78ABB3F
:102C90002BA94046FFF719F990BB022E92D1429C16
:102CA0000CA92046FFF711F9014620B9012206F0D0
:102CB00031F8FFF777BB0DA92046FFF706F920B9D9
:102CC000012106F0C5F8FFF76DBB0EA92046FFF7FE
:102CD000FCF800283FF469AF0FA92046FFF7F5F88C
:102CE00018B911F041FFFFF75DBB10A92046FFF7AF
:102CF000ECF818B913F09EFAFFF754BB6448BFE52F
:102D00002EA93846FFF7E1F80446E0B9DFF8A881BC
:102D1000604F06462146404629F0EAFF5E4B33F8F5
:102D2000149000257119A94589B205DC0134042CE1
:102D30003FF438AB0E46EDE757F82120574829F00D
:102D4000D7FF0135EEE734A94046FFF7BEF8044649
:102D5000002840F0B380032E7FF434AF429824A9BA
:102D6000FFF7B3F8054630BB802026F06BFFAC239D
:102D700000933CAA439BADF8F0508021044616F026
:102D8000E1FA08B146487BE5464D28688022214695
:102D900000F55F702BF0DFFE03F062FA2A688023F3
:102DA00002F55F7200211E2013F042F920462BF03D
:102DB00091FE3D4864E50A214398DFF8DCA028F045
:102DC000DCFBDDF808B10546584605F0D1F8314A7C
:102DD000804623463AF8021B0691002721E0B8F10D
:102DE000000F1BDA079352F826105846FFF76DF8CC
:102DF000284A079BA0B9022C28D0032C30D0012CE4
:102E00001CD0012D31D805F00101484603F076FAB7
:102E1000204B264853F826102A46B0E4B045EAD0A5
:102E20000137069913FA87F68F421FFA87F9B6B26F
:102E3000D5DB0134042C1AD03346CBE7012D14D84E
:102E400005F00101484603F07BFAE1E705F5004390
:102E5000B3F5803F09D229B2484603F091FAD7E78B
:102E60002946484603F0A6FAD2E7114808E511487A
:102E700006E500BF1B1203003812030040120300D6
:102E800018F7020064F702004CF702005112030029
:102E90005912030098060020E8030300771203008C
:102EA0007F1203001007002096120300A6120300F1
:102EB000BD120300CC1203006B12030031A9384687
:102EC000FFF703F8002840F0A080022E7FF47AAECE
:102ED000429F11A93846FEF7F8FF80BB0024DFF8B7
:102EE000DC81DFF8CC9126461CE0022CD9F80020CA
:102EF0001CD0032C1FD0012C14BF5288D2882A4129
:102F000002F001026649674851F8231029F0F0FEEB
:102F100001357319BD429BB2E7DB0134042C3FF449
:102F200041AA1E4638F814700025F2E702EB45026C
:102F3000B2F90A20E6E702EB8502D26AE2E724A9A9
:102F40003846FEF7C2FF0546C0B9AD2026F07AFE2E
:102F5000554BADF8F0501B6880220446009203F5F3
:102F60005F733CAAAD2116F06DF95048214629F057
:102F7000BFFE20462BF0AEFDFFF714BA384604F032
:102F8000F7FF0025DFF834A1454B8046A9463AF803
:102F900002BB00242EE0B8F1000F1CDA53F8261013
:102FA0003846FEF792FF3E4BB0FA80F0400900B37E
:102FB0003F4B022D1B6813D0032D16D0012D14BFDB
:102FC0005A88DA88224102F00102354B354853F81D
:102FD0002610FFF7D4BBA6EB080148424841E6E7BC
:102FE00003EB4403B3F90A20EFE703EB8403DA6A47
:102FF000EBE7013409EB04065C45B6B2CBDB0135E7
:10300000042D3FF434AFB146C1E738A93846FEF786
:103010005CFF002841D1022E7FF4D4AD429F11A95C
:103020003846FEF752FF18B903F014FAFFF7BAB9A1
:10303000384604F09DFF0024DFF88080184B0646D8
:10304000A14638F802BB00251AE0002E13DA53F827
:1030500020103846FEF739FF114BB0FA80F04009D6
:1030600068B15146A0B203F0BFF94299114829F066
:103070003FFEFFF797B9321A50425041F0E7013551
:1030800019FA85F05D451FFA85FA80B2DDDB01345F
:10309000042C3FF4ECAE8146D3E70748FFF7F0BBC2
:1030A00098060020E712030010070020760E0300A8
:1030B0000C070020FB1203000D130300E8030300BC
:1030C0002DE9F04F89B01F46DB000593139B039059
:1030D000DB000493139B079223EAE373DB000D46A6
:1030E00006934FF00008079B98452BDB09B0BDE81D
:1030F000F08FDBE90023F4E80201FEF705FB0B4645
:103100000246DDE90001FEF749F9049BCDE9000123
:103110009B4409F101099DED007BB9458AED007BD7
:10312000E7DB0AF1080A0136129B03EBC60B139B7F
:103130009E420BDA9FED0A7B2C468DED007B4FF013
:103140000009E8E7DDF80CA00026EDE7069B039AEE
:103150001A44059B03921D4408F10108C3E700BF10
:1031600000000000000000002DE9F74F0F461C464C
:103170001946064638469046651E0EF0E1FDA31E30
:103180009FED257B9FED266BE24304FB03316FF03F
:10319000070004FB0545183E4FEAC409D20007EBBF
:1031A000C101A0EBC400ED000196A7F1100B002BAC
:1031B00002DC03B0BDE8F08F019E03F1010C2E4448
:1031C0000BEB050EA44512DB58F823609E420AD093
:1031D00004FB063607EBC606B6468A469C46A4455F
:1031E00010DB86ED006B013B11440544DFE796EDF3
:1031F000005B0CF1010C8EED005B86ED007BCE4494
:103200004E44DFE79EED005B0CF1010CAAEC025B83
:10321000AEEC027BE3E700BF00000000000000000E
:10322000000000000000F03F2DE9F04F2DED048B71
:103230008FB0DDE91C541F4604FB05F300EBC3030C
:1032400003EBC40999ED007B4FEAC40808F10806B6
:1032500003EBC50B03930BEB0603CDE90C010992BD
:1032600051EC170B0293D3E900238DED0A0B8DED82
:10327000047BFEF791F87E4B0022FEF745FA0BEB3C
:1032800008030893039BCDE900019919089BD1E934
:103290000001D3E90023FEF737FADDE90023CDE989
:1032A000060110461946FEF72FFADDE90623FEF760
:1032B00075F8DDE90A2382468B46DDE90401FEF755
:1032C0006DF8C9E90001029BDDE90A01D3E9002399
:1032D000FEF764F8029BC3E90001099B03EB0809B0
:1032E00033440993BB19CDE904010A93002200235A
:1032F00050465946B844FEF797FC002800F09380EA
:103300004BEC10AB26F0F2FE00220023DDE90001B9
:1033100057EC106BFEF76AFC32463B4600287DD026
:10332000DDE90001FEF738F882468B4602460B467F
:10333000DDE90401FEF732F85246C9E900015B46B7
:10334000DDE90601FEF70AFB0B4602990246D1E9C8
:103350000001FEF721F8099B9FED437BC3E90001C3
:103360000A9B88ED007B83ED007B089BD3E90089F5
:1033700042464B4640464946FEF7C6F95246064687
:103380000F465B4650465946FEF7BEF902460B46CD
:1033900030463946FEF702F841EC100B26F0A6FE47
:1033A00057EC106B404632463B464946FEF7D6FA8C
:1033B0003B4641EC190B324650465946FEF7CEFAD1
:1033C000B0EE491AF0EE691A41EC180B2246039848
:1033D000B0EE480AF0EE680A294628F087FBB0EE06
:1033E000491AF0EE691AB0EE480AF0EE680A0C9835
:1033F0002246294628F0BFFBB0EE491AF0EE691AC2
:10340000B0EE480AF0EE680A0D98224629460FB041
:10341000BDEC048BBDE8F04F28F0FBBBDDE90001FB
:10342000FDF7BCFF80E7DDE90023DDE90401FDF7DE
:10343000B5FF099B5246C9E90001C3E900012BF021
:10344000004343EC102B26F051FE54EC103B0A9A3B
:1034500088ED000BBB5104F1004353600FB0BDEC8D
:10346000048BBDE8F08F00BF0000000000000000EA
:103470000000E03F000000002DE9F04FA9B059EC3A
:10348000118B0693531E19920793339A069B18903B
:1034900002FB03F4069B2791DB000A93069B00EBDB
:1034A000C40404EBC30BDBE900679D18304653EC02
:1034B000102B39468DED000BFDF76EFF32463B4673
:1034C000FEF722F904EBC50A42464B46FDF766FFBC
:1034D000DAE90023FEF742FADBE90223FDF75EFF9B
:1034E000DAE902238046894630463946FDF756FF21
:1034F000DDE90023FDF750FF339B1D4404EBC505B8
:1035000095ED027B06460F46404629F000413246C3
:1035100027F000438DED007BFDF740FFDDE900253E
:1035200025F00043FDF73AFFCDE9080102460B46BE
:1035300040464946FEF712FADDE9082380468946EF
:1035400030463946FEF70AFADDE90823CDE90201E3
:10355000DDE90001FEF702FA339BDB000D9308332F
:103560001293CDE90001CDF820A0069B339ADDF837
:1035700018A003EB420304EBC3030C930A9B083B24
:1035800004EB030B079B9A4502DD29B0BDE8F08FE1
:10359000069B9A4548DD079B9A4500F0E4800C9B0A
:1035A00013ED027B089BDBE9006753E9024527F036
:1035B0000043CDE91B3425F000431A961D93DDE945
:1035C0001C23DDE91A018DED007BFDF7E7FE009B72
:1035D0001E93019B23F000431F93DDE91E23FDF79B
:1035E000DDFE02460B46CDE9042300220023FEF750
:1035F000F3FA002840F0AC80DDE904233046394678
:10360000FEF7ACF9DDE904238046894620462946C9
:10361000FEF7A4F9DDE90423CDE90201DDE90001AB
:10362000FEF79CF9CDE9000142464B46404649462B
:10363000FEF76AF8DDE9022304460D4610461946F6
:10364000FEF762F802460B4620462946FDF7A6FE25
:10365000DDE9002304460D4610461946FEF754F8EE
:1036600002460B4620462946FDF798FE41EC100B1A
:1036700026F03CFD002200234046494655EC104B05
:10368000FEF7B4FA28B105F1004320942193DDE957
:103690002045069B9A4569DD05F10043239322945A
:1036A000DDE90423DDE92201FEF72EF8CBE9000174
:1036B00022462B4640464946FDF770FE22462B46E1
:1036C00080468946FEF74AF922462B46CDE9040199
:1036D000DDE90201FEF742F922462B46CDE90E0153
:1036E000DDE90001FEF73AF94246CDE910014B460B
:1036F000DDE90201FEF732F94246CDE902014B460F
:10370000DDE90001FEF72AF9CDE900010C9D089CD6
:103710000BF108065746339B9F4238DB199A189CD9
:103720000AF103039342A8BF134626934FEACA0344
:103730000A93083313930A9B103314930025269B96
:10374000AB4273DA329C0025339B9D42C0F2C980A4
:10375000129A089B134408930C9B13440AF1010A24
:103760000C9393440EE79FED8C7B1BE7069B279AF7
:1037700093429DD0DBF800302493DBF8043003F152
:10378000004325939DED247B8BED007B90E7D4E9EE
:103790000023DDE902010A94FDF7B6FFD6E9002314
:1037A000FDF7FCFD079B9A45804689461FD095EDA5
:1037B000007BDDE9002351EC170B8DED0A7BFDF753
:1037C000A3FF02460B4640464946FDF7E7FD024689
:1037D0000B4680468946DDE91001FDF795FF02465C
:1037E0000B46DDE90A01FDF7D7FDC5E90001DDE97A
:1037F0000E2340464946FDF787FF02460B46D4E9B3
:103800000001FDF7C9FDDDE90423E4E802014046BB
:103810004946FDF779FF02460B46D6E90001FDF760
:10382000BBFD0137E6E80201083574E70A9BE6189C
:10383000139BDDE904011F19D6E90023FDF764FF9E
:10384000D7E9002380468946DDE90E01FDF75CFFDC
:103850000B46024649464046FDF7A0FD079B9A45A8
:103860008046894623D0149B234493ED007B159317
:1038700051EC170BDDE910238DED167BFDF744FFAE
:1038800002460B4640464946FDF788FD02460B4678
:1038900080468946DDE90001FDF736FF0B4602460A
:1038A000DDE91601FDF778FD159BC3E90001DDE9AF
:1038B000022340464946FDF727FF02460B46D7E95B
:1038C0000001FDF769FDC7E900014B46D6E900019B
:1038D0004246FDF761FD0D9BC6E9000101351C4420
:1038E0002DE70A9BE618139BDDE904011F19D6E9B1
:1038F0000023FDF709FFD7E9002380468946DDE96B
:103900000E01FDF701FF0B46024649464046FDF712
:1039100045FD079B9A458046894623D0149B234446
:1039200093ED007B159351EC170BDDE910238DED22
:10393000167BFDF7E9FE02460B4640464946FDF779
:103940002DFD02460B4680468946DDE90001FDF764
:10395000DBFE0B460246DDE91601FDF71DFD159B5A
:10396000C3E90001DDE9022340464946FDF7CCFEEC
:1039700002460B46D7E90001FDF70EFDC7E900013D
:103980004B46D6E900014246FDF706FD0D9BC6E910
:1039900000011C440135D7E60000000000000000D3
:1039A0002DE9F04FA7B01D46309B249103FB05F491
:1039B00000EBC4049A491790EB001493002004EB29
:1039C000C503C3E9000130990793CE00C6EBC503D8
:1039D0001C446FF007039B1B9FED8F7B1593079B88
:1039E000CDE91043249B8DED220B8DED0A7B8DEDEF
:1039F000027B02EBC50203EBC50305F1FF3B169208
:103A0000AA462593149BBBF1000FA4EB030902DA2D
:103A100027B0BDE8F08F259B109993ED007B51E90D
:103A2000020153EC172B8DED127BFDF7B5FC09EB72
:103A3000CA031F46309B94ED007B03FB0AF8149BDE
:103A4000CDE9040103EBC8088DED007B179BD1463F
:103A50009844A94549DB169B33ED027B002216935F
:103A600051EC170B00238DED0C7BFEF7BFF830BB3C
:103A7000DDE90C0100220023FEF7AEF8002849D052
:103A8000009B0E93019B03F100430F93DDE90401BA
:103A900000220023FEF7A0F8002838D1DDE9042336
:103AA000DDE90E01FDF75AFFC4E900019DED0A7B37
:103AB0008DED007B9DED027B8DED047BDA46079B4F
:103AC000159A9B1B9DED007B0793109B13448DED76
:103AD0000A7B10939DED047B119B13448DED027BBB
:103AE0000BF1FF3BA41B11938CE7D8E90023F7E807
:103AF0000201FDF709FE02460B46DDE90001FDF774
:103B00004DFC09F10109CDE90001B044A1E7DDE96F
:103B10002223C5E7109B93ED007B119B8DED087B65
:103B200013ED027B249B03EBCB01D1E90001DDE91E
:103B300012238DED207BFDF72FFC02460B46FDF78F
:103B4000E3FDDDE90A23CDE91201DDE90801FDF716
:103B5000DBFDDDE9022380468946DDE90001FDF752
:103B6000D3FD02460B4640464946FDF715FCDDE90C
:103B70000C238046894610461946FDF7C5FDDDE950
:103B80001223FDF70BFC02460B4640464946FDF763
:103B9000E5FE089B1893099B23F000431993029BB1
:103BA0001A93039B23F00043804689461B93DDE96B
:103BB0001A23C4E90089DDE91801FEF735F8424609
:103BC0004B46A8B1DDE90401FDF79EFDDDE90023C8
:103BD000FDF7E4FB01F100431D931C90DDE9082390
:103BE000DDE91C01FDF7BAFE079BC3E900015DE7B3
:103BF000DDE92001FDF788FDDDE90A23FDF7CEFBB5
:103C000001F100431F931E90DDE90223DDE91E014F
:103C1000E8E700BFAFF300800000000000000000F4
:103C20000000F03F000000002DE9F04F8DB0CDE91D
:103C30000901169A013A0192169AD6003344A6F168
:103C400008040893019B002B02DA0DB0BDE8F08F49
:103C5000089B73E9028900220893404600234946E5
:103C6000FDF7C4FF054600284DD004F108030A9D66
:103C70000B93A4F108094FF00008169B984504DB4C
:103C8000019B013B0193083CDCE79FED377B0B9BDD
:103C9000099F8DED047B8DED027BAB4605EB030A9E
:103CA000BBEC027B09EB070351EC170BD3E90023B4
:103CB0008DED067BFDF728FD02460B46DDE902018E
:103CC000FDF76CFB3B19D3E90023CDE90201DDE9E7
:103CD0000601FDF719FD02460B46DDE90401FDF77B
:103CE0005DFBDA45CDE904013744D9D19DED027B76
:103CF00005EB090383ED007B2B19C3E90001354473
:103D000008F10108B9E70022002340464946FDF7C3
:103D100063FF0028B4D00A9F04F1080A1FE09FED5A
:103D2000127B099B8DED027B03EB0409B84607EB80
:103D30000A0BD9E90023F8E80201FDF7E5FC024689
:103D40000B46DDE90201FDF729FBD845CDE902016B
:103D5000B144EED13B19C3E9000101353744169B4C
:103D60009D42DCDB8CE700BF00000000000000008B
:103D70002DE9F04F2DED048BBDB093464A9A0E937A
:103D80005D1E02FB03F4EB001E930E9B1D909E1A1A
:103D9000EB0000EBC40408330F9304EBC50704EBFE
:103DA000030AAB1A97ED007B04EBC60604EBC304D1
:103DB0000F9BCB188DED007B1C9393ED007B0F9B2D
:103DC0005B44D6E900891393DDE90003424623F002
:103DD000004129F000438DED3A0B8DED027BFDF79C
:103DE00023FFDDE90223002859D0DAE90001FDF7BD
:103DF000D3FADDE9002301F10041FDF7AFFDC4E98D
:103E000000010F9B5BF80300139B5B6803F100410B
:103E1000D7E90023FDF7A2FDC6E900016E4B0022A1
:103E2000C7E900230E9B023B1293129A4A9B53430D
:103E30001D9A00200021CAE9000102EBC30A0E9A74
:103E40004A9B134403F10053013BDB0036930833D4
:103E500038934A9BDB0016935B423993531E0BEB5E
:103E6000C3031F931C9B1793169B41EC170BC3F1C5
:103E7000FF2303F57F03F833CDE90A018DED107BB5
:103E800037930AEBC203A3F1100B129B002B8DEDAD
:103E9000087B19DA3DB0BDEC048BBDE8F08FD4E9A6
:103EA0000001FDF779FA41EC120B2046139C4246C3
:103EB00009F1004394ED003B9FED451B43EC102BB3
:103EC000314627F031FFA9E71C9B93ED007BDBE92E
:103ED000000153EC172B8DED207BFDF75DFA0F9B56
:103EE0000AEB030494ED007B8DED007B9FED387BA6
:103EF0004A9BCDE9060103FB05F88DED027B1D9B76
:103F00000AEBC50603EBC808A9460E9B994535DBAD
:103F10001F9B73E9026700221F9330460023394636
:103F2000FDF764FE002840F0A981139B93ED007B10
:103F30001E9B00220AEB03053046002339468DED17
:103F4000047BFDF749FE002848D0029B2293039B87
:103F500003F100432393009B2493019B03F100434F
:103F600025939DED043B9DED062B9DED221B9DEDC4
:103F7000240B2146284627F0D7FE72E1B6EC027BDF
:103F80001E9B434451EC170BD3E900238DED047BBA
:103F9000FDF7BAFB02460B46DDE90001FDF7FEF92D
:103FA0000F9B4344D3E90023CDE90001DDE904017F
:103FB000FDF7AAFB0B460246DDE90201FDF7EEF92B
:103FC000169BCDE9020109F1010998449DE700BF64
:103FD00000000000000000000000F03F9BED027BAD
:103FE000169B17995B448DED0C7B93ED007B51E99B
:103FF0000401DDE920238DED147BFDF7CDF90246A8
:104000000B4680468946FDF7C9F9DDE90423FDF733
:104010007BFB4246CDE920014B4640464946FDF731
:1040200073FB32463B468046894630463946FDF7AB
:104030006BFB02460B4640464946FDF7AFF9DDE90A
:10404000042306460F4610461946FDF75DFB02465F
:104050000B4630463946FDF79FF902460B4643ECC6
:10406000182B0C9B1A930D9B23F000431B93089B6A
:104070001893099B23F00043199300220023FDF7B6
:10408000ABFD002831D0DDE9200100220023FDF73F
:10409000A3FD002829D0069B2693079B23F000430D
:1040A0002793DDE92601DDE91A23FDF777F9149B53
:1040B0002893159B23F000432993DDE92823FDF77E
:1040C0006DF9DDE91823FDF769F9049B2A93059B37
:1040D00023F000432B93DDE92A23FDF75FF9DDE9A7
:1040E0003A23FDF711FB41EC180BDDE90A23DDE96A
:1040F0000C01FDF709FBDDE9022306460F46DDE969
:104100000801FDF701FB02460B4630463946FDF734
:1041100043F9DDE9042306460F46DDE90001FDF71A
:10412000F3FA02460B4630463946FDF735F9DDE92C
:10413000102341EC190BDDE90C01FDF7E5FADDE98F
:10414000002306460F46DDE90801FDF7DDFA0246C9
:104150000B4630463946FDF71FF9DDE904230646D4
:104160000F46DDE90201FDF7CFFA02460B46304665
:104170003946FDF713F9B0EE482AF0EE682AB0EEA2
:10418000491AF0EE691A41EC100B9DED203B2146D7
:10419000284627F0C9FD139BD3E90067369B2C9670
:1041A0000AEB0309389B0AEB030827F000432D9321
:1041B000DDE92C01DDE91823FDF7F0F8DDE91A232C
:1041C000FDF714FD00286ED0009B2E93019B03F198
:1041D00000432F93DDE90601D5E90023FDF794FAAA
:1041E00002460B46DDE92E01FDF7D6F8D4E900239F
:1041F000CDE9000130463946FDF786FADDE90C23AA
:10420000FDF7ACFB02460B46DDE90001FDF7C6F801
:10421000029B3093C9E90001039B03F100433193F2
:10422000DDE90601D4E90023FDF76EFA02460B46EC
:10423000DDE93001FDF7B0F80F461399D5E9002309
:104240000646D1E90001FDF75FFADDE90C23FDF731
:1042500085FB02460B4630463946FDF79DF8C8E916
:1042600000019DED0A7B8DED027B9DED107B8DEDB8
:10427000007B9DED087B8DED067B129D399B9A445A
:10428000129B9DED027B013B1293179B8DED0A7BE8
:10429000083B9DED007B1793379B8DED107B9B4476
:1042A0009DED067BF1E50A9B32930B9B03F10043E6
:1042B0003393DDE91401D4E90023FDF725FA024622
:1042C0000B46DDE93201FDF767F8109B3493119B33
:1042D00003F1004341EC180B3593DDE91401D5E9F6
:1042E0000023FDF711FA02460B46DDE93401FDF724
:1042F00053F8B0EE481AF0EE681A41EC100B9DED41
:10430000082B47EC136B4146484634E6000000009A
:104310002DE9F04F8BB0CDE906014C1CDFF8F0B071
:10432000E40005464FF000084FF0000A079B98454F
:104330000FDB069BA4F1080903EB0907B84601252A
:10434000079BAB425CDD069B05930023049701931A
:1043500043E0D5E900670022002330463946FDF7E7
:104360003BFC002847D132463B4650465946FDF7B4
:10437000F5FA08F10108C5E900012544D6E7DBE9B3
:104380000023F6E80201FDF7BFF902460B46DDE91E
:104390000201FDF703F8CDE902010AF1010ACB445D
:1043A000AA45ECDBD8F808300893D8F80C3003F1B4
:1043B00000430993DDE90801DDE90223FDF7A4F9D3
:1043C000049BE3E802010493019B01330193059BE5
:1043D00023440593019B9D4209D0DDE9043B9FEDF9
:1043E0000A7BDDF804A08DED027B1E46D8E701357F
:1043F0004F44A044A4E74FF0FF300BB0BDE8F08F6E
:104400000020FAE7AFF30080000000000000000089
:104410000000F03F000000002DE9F04F87B00D468E
:104420000390FFF775FF00283BDB039F4FEAC50AA7
:104430000024AC423ADAE3000593039B029703EBB6
:10444000C409002621E0059B08EB0301049B4344BB
:10445000D3E90023D1E90001FDF756F902460B46E6
:10446000DDE90001FCF79AFF0BF1010B5D45CDE999
:104470000001D044E7D1029BE3E802010136B442D7
:10448000C9E900010293D14408DB9FED097BF300E9
:104490008DED007B0493B846A346D4E7013457441E
:1044A000C7E74FF0FF3007B0BDE8F08F0020FAE714
:1044B00000000000000000002DE9F04F99B0012A33
:1044C00003908B46144607DC7D4B0022C1E9002394
:1044D000002019B0BDE8F08F022A0CD178490020E5
:1044E00000220023CBE90001CBE90223CBE9040140
:1044F000CBE90623ECE7900025F0A4FB059000280B
:1045000000F0D480039B049003EBC4030B93A31E21
:10451000E50017930B9B0E9305F1080310930BEB2B
:10452000041306930F930B9B07930026049B079F8E
:104530009FED617BB246013643F8046F4FEAC6092E
:104540008DED087B0493A9F108031493B046A045B0
:1045500042DB049B1A68B2420BD0039831462346D3
:1045600027F073FC049A009412680398314627F0F0
:1045700053FC0E9BEB1811939846039B4B441593E9
:104580000F9B0AF10207A7420A933FDBDDE90F32D6
:1045900013440F93079B13440793179B9E4218DB0A
:1045A0000B9E02272E447A1E3046069927F017FAF2
:1045B000069B01372B44BC422E440693F3DC039840
:1045C000059A23465946FEF7CFFD05982AF082FA50
:1045D0007EE7119B0E93A9E73B6812937B6823F05B
:1045E00000431393DDE91201DDE90823FDF71CFB0D
:1045F00040B1049BC3F800803B6808937B6823F0BC
:10460000004309932F4408F10108A0E7149B08EB2D
:104610000301079BD1E90001D3E90023FDF79EF9CF
:10462000CDE9080105EB0803DDF838A01693C14673
:1046300099ED007BDDE90823FAE802018DED0C7BA2
:10464000FDF762F80B460246DDE90C01FCF7A4FE1B
:10465000E9E80201169B4B45EAD19DED087B0A9BD8
:10466000DDF8549083ED007B039B03EBC7030C93B1
:104670004FF0000A0C9BDDE90801D3E90023FDF7A8
:1046800043F80B460246D9E90001FCF787FE0C9B74
:104690000AF1010A2B445445C9E900010C93A944CD
:1046A000E8D10A9BA84401372B446CE74FF0FF3058
:1046B0000FE700BFAFF30080000000000000000023
:1046C0000000F03F000000002DE9F04F804F814DC9
:1046D0008BB0044631B34FF6FF733B802B68B3F9C0
:1046E0001A30002B19DB062015F0D6FF38B17A4BB3
:1046F000436102230374002343748374C3747749B2
:1047000000234FF4865229F014F80FF0D3FE4FF037
:10471000FF300FF0B1FE0FF0EBFE0BB0BDE8F04F35
:1047200004F07EB86E4AB2F90030108083421FBF99
:104730006C490B7823F008030B702AF0A1F96A4B3F
:10474000C3E900012B68D3E90A01684BC3E9000102
:10475000B7F90030013305D13C802AF091F9644B60
:10476000C3E900012B68B3F91A30002B1FDA0820C7
:1047700015F092FF064680B15E4B43612046FCF780
:1047800059FF5D4B0022FDF7E9F80423C6E9060155
:10479000337400237374B374F37430464F490023A9
:1047A0004FF4035228F0C5FF20460FF065FE002CA1
:1047B000B3DB2B68B3F91A60A6F1640294422BDADA
:1047C0000A2015F069FF0546C8B14C4B43613046DD
:1047D000FCF730FF484B0022FDF7C0F8C5E90601A1
:1047E0002046FCF727FF444B0022FDF7B7F80623CD
:1047F000C5E908012B7400236B74AB74EB740023C0
:104800004FF442522846354928F093FF0FF052FEEC
:1048100020460FF031FE80E706F1640294422BDD62
:104820000C2015F039FF0546D8B1354B4361354BA7
:1048300083613046FCF7FEFE2F4B0022FDF78EF819
:10484000C5E908012046FCF7F5FE2B4B0022FDF7D9
:1048500085F80823C5E90A012B7400236B74AB7437
:10486000EB7428461D49002344F2400228F061FF02
:104870000FF020FE20464CE7B3F9186006F1640300
:104880009C4243DD0C2015F007FF0546D8B11E4BB6
:1048900043611C4B83613046FCF7CCFE164B002273
:1048A000FDF75CF8C5E908012046FCF7C3FE124B92
:1048B0000022FDF753F80823C5E90A012B740023F1
:1048C0006B74AB74EB74002344F240029AE700BFB0
:1048D0009C0A0020100700205C4C03000CF402002E
:1048E0009E0A0020A5500020281D0020201D002029
:1048F000181D00206A4C030000005940874C03003B
:10490000C44C0300904E0300024D0300B7F9003081
:10491000581C7CD0643B9C4279DADFF88CA22AF0E8
:10492000AFF8DAE90023801A61EB0301984B984253
:1049300071F100016BD22AF0A3F8DAF80030B7F970
:1049400000B0DAF804A0009381460E20884615F0E6
:10495000A3FE0546002848D0009B8E4AB9EB03060B
:1049600068EB0A03A6FB026702FB03778A4B4361ED
:10497000A4EB0B00FCF75EFE884B0022FCF7EEFF79
:10498000F60B46EA4746FF0BCDE9000130463946B3
:10499000FCF784FE7CA3D3E90023FCF7DFFF02468B
:1049A0000B46DDE90001FCF7D9FFC5E906015846D1
:1049B000FCF740FE794B0022FCF7D0FFC5E9080167
:1049C0002046FCF737FE754B0022FCF7C7FFC5E910
:1049D0000C67C5E90A014FF0000A0A232B7485F819
:1049E00011A085F812A085F813A000236C4945F2A8
:1049F000C002284628F09DFE0FF05CFD20460FF017
:104A00003BFD684B1C80684BC3E9009885E62B682A
:104A1000B3F91A20A242B3F91820C8BF5C836FF41F
:104A200095710A4494427CDAB3F930306FF4F9722C
:104A300013449C4275DA2046FCF7FCFD574B0022DC
:104A4000FCF78CFF064608200F4615F025FE48B1FE
:104A5000564B4361C0E90667042303740023437483
:104A60008374C37400234E494FF4035228F061FE4F
:104A70002B68B3F91830A3F21F339C4248DA0820A0
:104A800015F00AFE48B14A4B4361C0E906670423AA
:104A90000374002343748374C37400234FF40352DC
:104AA0003F4928F046FE04F2F3140FF0CFFC4FF418
:104AB000FA73B4FBF3F42B68D3E90A26D3E90E7337
:104AC000D71B66EB0306B7F5160F76F100032BD262
:104AD0000A2015F0E1FDA8B1364B4361364BC0E921
:104AE00006342C4CA7FB042304FB0633D20B42EA0A
:104AF0004342DB0B0021C0E9082306230374417401
:104B00008174C174264900234FF4415228F011FEEC
:104B10002B68D3E90A011A8EC3E90E01A2F5FA72D5
:104B20001A860FF093FCF8E50934A4B2202202A9FA
:104B3000204611F0B9FABDF80830059A0133ADF8F6
:104B40000830049BDB1946EB0202CDE90432DDE9B3
:104B500006329F4276EB020101D3134301D1CDE926
:104B60000676089BBB42099B02AAB3414FF00001A5
:104B70004FF02003204638BFCDE9087611F058FAEF
:104B80000E4B00221A70C3E700000000389C8C41D5
:104B900001001E0040420F00404D0300000059403C
:104BA0000CF402009C0A0020181D00208C4D03000C
:104BB000A14D0300B94D0300804E0300A550002015
:104BC0002DE9F04F054687B0214FBB68029304AA38
:104BD0005B68002138469847002832DBDDE9044B4A
:104BE0001C4BDFF87490A4FB031203FB0B2803910A
:104BF00015A3D3E9002308464146FDF7FDF8039BC2
:104C00004FF0FF3A9A4579EB0803064619D3A5FB06
:104C1000044305FB0B3529460BA3D3E900232046AB
:104C2000FDF7EAF8A24579EB0505034609D386426C
:104C300007D300220092029A0021146838463246B7
:104C4000A04707B0BDE8F08F00CA9A3B0000000003
:104C5000E0EE020040420F00FFC99A3B0000000056
:104C60002DE9F04F9FB08246039117461C46002560
:104C7000387810B9284600F0A6BD252809D0039938
:104C8000D0470028C0F29F857B1C01350593059F06
:104C9000EEE71822002110A829F06BFF7B78252B66
:104CA00000F0BC800023791C98469E469C4618461E
:104CB0000E4611F8012B2B2A00F0E38000F2DA8077
:104CC000202A00F0E180232A00F0E1802BB19DF83A
:104CD000483043F040038DF84830B8F1000F05D05C
:104CE0009DF8483043F020038DF84830BEF1000FA6
:104CF00005D09DF8483043F010038DF84830BCF1E2
:104D0000000F05D09DF8483043F008038DF8483077
:104D100028B19DF8483043F004038DF848309DF8E1
:104D2000483003F04401442903D16FF386138DF812
:104D300048309DF848300E9643F080032A2A8DF8BB
:104D4000483040F0A9809DF8493043F001038DF8C8
:104D50004930731C1A782E2A9DF849200CBF012176
:104D6000002161F341028DF849200CD15A1C0E92AA
:104D70005A782A2A40F0A0809DF8492042F0040287
:104D80008DF8492002331A786C2A00F0C18000F2B5
:104D9000A380682A00F0A9806A2A00F0C2804C2A09
:104DA00000F0C78013F8012B0593782A8DF84B206B
:104DB00000F209816D2A00F2C980692A00F203819C
:104DC000572A00F2E280412A04D0A2F14503022BC7
:104DD00000F2F9809DF84A3002F0DF020421A2F1CE
:104DE000410961F30203D9F100029DF849108DF8E1
:104DF0004A3042EB090262F3C7110A068DF84910E6
:104E0000CBB200F11F8103F07802182A40F009812B
:104E10006FF3C6038DF849300023F8E08DF84B306E
:104E2000BB1C05939DF849309DF84A20DE0702F02F
:104E3000070040F1098154F8041B0491002908DAA5
:104E40009DF8481041F004018DF84810049949423A
:104E50000491590740F1008154F8046B002E80F250
:104E6000FF809DF849306FF341038DF849304FF0D2
:104E7000FF36F5E02D2A0DD0302A7FF427AF01232D
:104E800016E74FF0010C13E74FF0010E10E74FF05B
:104E900001080DE701200BE70EA813F01FFF0E9B82
:104EA000B3423FF457AF9DF848201390C00F60F312
:104EB00041028DF848204DE70EA813F00FFF9DF832
:104EC00048301490C3F3400242EAD07262F34103C7
:104ED0008DF848300E9B56E7742A26D07A2A7FF444
:104EE00061AF9DF8492006210CE05A78682A9DF8A8
:104EF000492006D1012161F3C6028DF84920023311
:104F000050E7022161F3C6028DF84920013349E7D9
:104F10005A786C2A9DF8492001D10421EBE703213E
:104F2000F0E79DF849200521ECE79DF8492007218D
:104F3000E8E7BDF8482022F4F04222F0020242F4F1
:104F4000804242F00202ADF84820DFE76E3AD3B269
:104F500001229A4040F282431A429DF8493039D1E9
:104F600012F0240F61D1D1072DD59DF84A2003F00E
:104F70007803A3F14008032161F30202D8F1000392
:104F80008DF84A2043EB080341E0A2F15801C9B271
:104F9000012000FA01F111F4624F7FF41BAF40F6DB
:104FA000010319429DF849301AD111F4043F0AD087
:104FB0009DF84A2060F3020203F07803402B8DF83D
:104FC0004A207FF429AF9DF8483043F001038DF863
:104FD000483021E79DF84A20022161F30202EBE705
:104FE0009DF84A10022003F0780360F30201402B81
:104FF0008DF84A1002BF9DF8481041F001018DF86C
:105000004810632A7FF408AF003B18BF01239DF8C6
:105010004820C2F340010B4363F341028DF848205E
:1050200000E713F0380FCED1F6E69DF84A200321B1
:1050300013F0780F61F302028DF84A2014BF0123A8
:105040000023E4E70123E2E79DF948100029B4BFFB
:1050500013994FF0FF31FBE69E077FF508AF149ED2
:1050600000230428CDE913339DF8493007D199076F
:1050700005D49DF949100029ACBF06260D2602F083
:105080000702012AC3F3C30332D1DA1E042A04D86B
:10509000DFE802F02045452020002268012B4FEA7E
:1050A000E271CDE910211BD19DF94020D117CDE946
:1050B000102104349DF84820069292074FD0059B9A
:1050C00003993A46504627F066FE0028C0F27B83DB
:1050D0000544DCE554F8042BD117CDE91021E9E7AC
:1050E000022BE6D111B242F3C032CDE91012E0E753
:1050F000022A24D1DA1E042A04D8DFE802F01810AC
:1051000010181800012B54F8042B4FF0000114D094
:10511000022BCDE91021CDD192B21092CAE707340B
:1051200024F00704F4E80201CDE91001C2E754F8C5
:10513000042B109200221192BCE7D2B2CDE7042AD0
:1051400008D1073424F00704D4E900010834CDE97C
:105150001001AFE7032AADD154F8042BDDE79DF829
:105160004B80B8F1780F3FF692ADB8F1570F5CD88D
:10517000B8F1250F00F0A480B8F1240F7FF687ADB9
:10518000B8F1410F04D0A8F14503022B3FF67FADE3
:10519000DDE91023002BC0F24D810699080700F1CC
:1051A0004C81C1F300194FEA4919C3F30A51C3F303
:1051B0001303002940F0448152EA030014BF4FF06A
:1051C000010C4FF0000CD80240EA5250D702CDE952
:1051D0000C70B8F1460F47EA010740EAE17008BFDA
:1051E0004FF06608384300F0B881BCF1000F10D0D2
:1051F0001B0343EA125317033A4618464FF0000CBC
:10520000002880F25681BCF1000F40F05981CDE9B1
:105210000C730D9B43F00043A1F2FE3B0D93002164
:10522000DDE90C230F46052060E1A8F15802202A91
:105230003FF62DAD01A151F822F000BF0754000048
:105240008F4C00008F4C00008F4C00008F4C0000F2
:105250008F4C00008F4C00008F4C00008F4C0000E2
:10526000915100008F4C0000B3530000C753000061
:105270009151000091510000915100008F4C0000AD
:10528000C75300008F4C00008F4C00008F4C000073
:105290008F4C00000D5400000754000057530000CD
:1052A0008F4C00008F4C0000D15200008F4C00004A
:1052B000075400008F4C00008F4C00000754000082
:1052C00003994046D0470028C0F27D820135DEE4D4
:1052D000002E109F3BDB3146384629F072FC002F30
:1052E0003FF4D5AC3E18F31B4FF000099DF84A205F
:1052F00012F01001069100F05B82023312F04002BE
:10530000DDF84C80089218BF149ACDF81C804344F5
:1053100018BF9B18049A002A40F36582D31A9DF89F
:10532000482004935007C2F3800B00F15C825106C1
:1053300040F14C82B9F1000F07D003994846D0479D
:105340000028C0F240820135D94630223FE238467B
:10535000FCF7C5FDC6E71098002800F024820DF187
:105360007503009312AA17AB002113F0CDFCBDF812
:105370004A3003F0EF0343F4F04343F010030746D1
:10538000ADF84A304FF00009002E0CDB9DF84820A4
:105390000DF17503DB1B6FF386129E428DF84820DA
:1053A00001D9F31A1393002F3FF471AC0DF1750678
:1053B0006DE0109B8DF85C304FF000090DF15D063B
:1053C00017AF012392E7069B1F0758BFC3F30019CD
:1053D000DDE9102354BF4FEA49194FF02B09002B88
:1053E00006DA524263EB4303CDE910234FF02D0957
:1053F0000DF175030093DDE9100117AB12AA13F04C
:1054000083FC0746C0E74FF00009F1E7109A072B2D
:105410003FF63DACDFE803F00C04060C08080C0C6A
:10542000157034E4158032E4EB17C2E900532EE422
:1054300015602CE44FF02D09B7E64FF02B09B4E6C8
:1054400040F2FF70814231D108F10108A2495FFAB0
:1054500088F8134311F8081001F003011ED1012947
:105460000BBF492369234E216E210CBF46226622C1
:105470008DF85C309DF848308DF85D106FF3861321
:105480008DF85E208DF848300DF15F0617AFF31BE5
:10549000B9F1000F3FF42AAF013327E7012915BF07
:1054A0006E234E23612141211A46E1E74FF0000CA3
:1054B00089E6921801F1FF3140414FF0010C9FE65F
:1054C000CDE90C20A5E6520842EAC3725B08B3F1AD
:1054D000333F59460BF1010BF5D200FB03FCA2FB55
:1054E000002301F1020B6344013F01211BF1020F74
:1054F000E9DB09B1CDE90C23BBF1000FDDE90C328A
:105500002EDCCBF10401A1F120000BF11C0B02FAFF
:105510000BFB22FA00F0CA40CB40079208F0DF02F2
:1055200043EA0B03472A43EA00037DD1F91C01DB60
:10553000BE422BDAA8F10208002E5FFA88F87CDD63
:105540009DF84820920606F1FF3676D4B6F1000B9E
:1055500018BF4FF0010B721C27E04FF0000B5EE606
:10556000023342F100020CA8CDE90C3227F0E4FB33
:10557000DDE90C320BF1FF3B0137DB185241002A09
:105580000BF1FF3BF9DACDE90C32B5E79DF8482085
:105590009006A6EB07064DD4B6F1000B18BF4FF0EE
:1055A000010BF2194FF066084AD4102AA8BF102246
:1055B0009FED477B8DED0E7B10200B90DDE90E01FA
:1055C000002A3FD1079A1B1842EB0101B1F1805F1D
:1055D00047D2CDE90C31069BB8F1660F03F02002EB
:1055E00040F0C180002F47DC30238DF85C30002A6A
:1055F00074D1002E40F3BA812E238DF85D3087B12F
:105600007B42B342A8BF33469DF84A201393002B38
:10561000A6EB0306D4BF0023012363F345128DF8E4
:105620004A200DF15E0340E0B8F1660F4FF0000B29
:10563000B7D090E74FF0000BB3E74FF0000B8AE7CD
:105640000022B5E7400840EAC1704908CDE90E01E3
:105650000EA8CDE9082327F06FFB089A099B013AB1
:10566000ACE75B0843EAC1730CA84908CDE90C31EB
:10567000013727F061FBAEE717AB0B9900290BDD73
:105680000BA90CA8CDE9063227F06EFB069B079A02
:1056900003F8010B013FF0D11397AAB9002E40F394
:1056A00063812E2103F8011B0027002E1FDD0B9ABA
:1056B000002A1CDD0BA90CA8069327F055FB069BBE
:1056C000013E03F8010BF0E72E2203F8012BEBE774
:1056D0000000000000000008A57903002E238DF8CB
:1056E0005D30002F9DD0002E8ADC0DF15E03BBF1F2
:1056F000000F4CD114961E4608F0DF03452B21D134
:10570000002FBABF7F422D232B23632FC8BF6422F3
:105710007370C2BFB7FBF2F303F1300102FB1377E2
:105720004FF00A0286F80080CABFB1700236033615
:10573000B7FBF2F303F1300102FB13733033317026
:1057400073700236139B002B2BDC149B002BD4BFF1
:10575000002301239DF84A2063F3861200238DF86D
:105760004A20337092E60BA90CA8069227F0FCFAA7
:10577000069A8DF85C00302818BF07F1FF3712B980
:10578000002E40F3F3802E238DF85D3049E71E464E
:10579000013B16F8012C302AF9D02E2A08BF1E46EC
:1057A000AAE70123D6E7734E8146771F05239DE5BF
:1057B000110748BF0133A1E5104609920399D0476C
:1057C0000028099A05DA1FB0BDE8F08F2022DDF825
:1057D00010B0594600290BF1FF3BEDDC049BCDF8DE
:1057E00010B02B445D1AB9F1000F05D0039948465B
:1057F000D0470028E7DB0135089B002B79D09DF9C5
:105800004930002B29DBDFF870913B46187819F8F6
:10581000002052079B4603F101033FD49DF84A3014
:10582000EF1B98065F4407D44246002A08F1FF3870
:105830003BDC079B3B449F1A9BF800002E280AD1B3
:105840000399D0470028BEDBB8F1000F07F101072C
:1058500031DC0BF1010B5D4638E0B94699F80000E8
:105860007028C84609F1010913D1EF1B149D474464
:105870003D44EB1B002B34DC039933464246504633
:1058800027F089FA00289EDB3844049E054606442A
:1058900065E00399D0470028E0DA94E7069303997E
:1058A000D0470028069BB1DA8DE703993020D04716
:1058B0000028B9DA87E703993020D04708F1FF388C
:1058C000C0E70399D0470028FFF67DAF287819F884
:1058D00000305907A84605F10105F2D4A7EB0B07E4
:1058E000C4E703993020D0470028FFF66CAF01379A
:1058F000BFE79DF84A30DA0601D41B0706D50399A5
:105900003020D0470028FFF65EAF0135069B3BB143
:1059100003999DF84B00D0470028FFF654AF01359E
:10592000A84406E003993020D0470028FFF64BAF8B
:105930000135A8EB0503002BF4DC039933463A4606
:10594000504627F028FA0028FFF63DAF28449CE790
:1059500003992020D0470028FFF635AF0135731B8F
:10596000002BF5DCFFF793B91746C0E60DF15D0398
:10597000BDE600BF25560300A67903000000000025
:105980002DE9F04F0029D0F81080446889B000F369
:105990008880D8F80030D4E90069002B4ED1A38963
:1059A000A5680593B36806AA5B68494630469847E0
:1059B000071E19DBDDE9067BA5FB072305FB0B337F
:1059C00003920293DDE9021037A3D3E90023FCF729
:1059D00013FA039B029A04904FF0FF3A9A45344B16
:1059E000934105D26FF08507384609B0BDE8F08FC6
:1059F0006B08A3FB075703FB0B7728462AA3D3E9C1
:105A000000233946FCF7F8F9294AAA45BA4103466A
:105A1000E8D30499B268994243D305990091156877
:105A2000049A49463046A84707460028DCD1208A18
:105A300028F019FF012388F80430D5E7B36806AAD7
:105A40005B6849463046984707460028CCD1034654
:105A5000D8F80020DDE90601FCF7CEF91A4310D092
:105A6000062014F019FE30B1124B43610223037477
:105A700047748774C774104900234FF4845227F089
:105A800058FED8F80020DDE906010023FCF7B4F940
:105A9000A5890246D4E90001836800951D68530872
:105AA000C1E76FF015079FE700CA9A3B00000000AE
:105AB000FFC99A3B856C03002CF402000000000033
:105AC00038B52DED028B55EC104B00F04DFA224B02
:105AD000B0EE408AF0EE608A93F90030013312D0C4
:105AE00045EC104B29F01CF868B113A3D3E900234F
:105AF00020462946FCF798F860B128F0A0F89FED01
:105B0000108B22230360B0EE480AF0EE680ABDEC69
:105B1000028B38BD0CA3D3E9002320462946FCF7AD
:105B200065F80028EFD028F08AF822239FED088B33
:105B30000360E8E7AFF30080EF39FAFE422E8640BB
:105B4000000000000000F07F51302DD5104987C0C3
:105B500000000000000000003E0B002000000000DC
:105B60002DE9F04F55EC104BC74B87B025F00046A0
:105B70009E4201952DD906F1404606F58016264332
:105B800016D1A7A3D3E9002320462946FBF7BCFD85
:105B9000A5A3D3E9002306460F4620462946FBF776
:105BA000B3FD02460B4630463946FBF7F7FB09E0EA
:105BB00022462B4620462946FBF7EEFB02460B46C3
:105BC000FBF7CCFE04460D4645EC104B07B0BDE894
:105BD000F08FAE4B9E4210D8B6F1795F80F0AD8069
:105BE00093A3D3E9002320462946FBF7D7FBA84B14
:105BF0000022FCF719F80028E6D145EC104B28F0FC
:105C000087FFA34953EC102B0020FBF7C5FBA14BEA
:105C10000022FBF779FD88A3D3E9002304460D4653
:105C2000FBF772FD86A3D3E90023FBF7B7FB2246FF
:105C30002B46FBF769FD84A3D3E90023FBF7ACFBFC
:105C400022462B46FBF760FD81A3D3E90023FBF737
:105C5000A5FB22462B46FBF757FD7FA3D3E9002384
:105C6000FBF79AFB22462B46FBF74EFD7CA3D3E9BC
:105C70000023FBF793FB22462B46FBF745FD7AA357
:105C8000D3E90023CDE9020120462946FBF73CFD7C
:105C900077A3D3E90023FBF77FFB22462B46FBF7D4
:105CA00033FD75A3D3E90023FBF778FB22462B468F
:105CB000FBF72AFD72A3D3E90023FBF76DFB224615
:105CC0002B46FBF721FD724B0022FBF767FB45ECEF
:105CD000104BCDE9040124F095FA6F4B9E425BEC2A
:105CE00010AB40F2DB80DDE90423DDE90201FBF7C4
:105CF00035FE52465B46FBF707FD52465B46FBF717
:105D00004DFB02460B46FBF749FB47A3D3E90023B3
:105D1000FBF742FB02460B4641A1D1E90001FBF72C
:105D20003BFB019B002BDCBF024601F10043044614
:105D30000D46DCBF14461D4646E722462B4620464C
:105D40002946FBF7E1FC3CA3D3E9002306460F46B6
:105D5000FBF7DAFC3AA3D3E90023FBF71FFB32463B
:105D60003B46FBF7D1FC38A3D3E90023FBF714FB38
:105D700032463B46FBF7C8FC35A3D3E90023FBF7CB
:105D80000DFB32463B46FBF7BFFC33A3D3E90023B0
:105D9000FBF702FB32463B46FBF7B6FC30A3D3E9E8
:105DA0000023FBF7FBFA32463B46FBF7ADFC2EA384
:105DB000D3E900238046894630463946FBF7A4FCE8
:105DC0002BA3D3E90023FBF7E7FA32463B46FBF768
:105DD0009BFC29A3D3E90023FBF7E0FA32463B46BC
:105DE000FBF792FC26A3D3E90023FBF7D5FA324652
:105DF0003B46FBF789FC264B0022FBF7CFFA024615
:105E00000B4640464946FBF7A9FD22462B46FBF7C9
:105E10007BFC02460B4620462946C6E6AFF30080CF
:105E2000182D4454FB21F93F075C143326A6913CFE
:105E30009C7500883CE4377E09F7FD0DE13D023F8B
:105E400088B20175E0EF493F3B8F68B52882A43FD7
:105E50005544880E55C1C93F7D6FEB0312D6D43F20
:105E6000555555555555C53F82922EB1C5B8B33FCE
:105E700059018D1B6C06E63FC88A599CE52A0040F3
:105E80004B2D8A1C273A0340FFFFEF3FFFFFDF3F08
:105E90000000F03F0000E03F3233EF3F52465B46E8
:105EA00050465946FBF77AFADDE9042306460F46C9
:105EB000DDE90201FBF752FD02460B46304639464A
:105EC000FBF722FC4FF0000806460F4642465B46B1
:105ED00040465946FBF718FC02460B462046294629
:105EE000FBF75AFA424604460D465B465046594671
:105EF000FBF754FA02460B4620462946FBF72EFDD7
:105F000002460B46FBF74AFA02460B4612A1D1E9BC
:105F10000001FBF741FA02460B4630463946FBF7D3
:105F20003BFA424604460D465B4640465946FBF75F
:105F300035FA02460B460AA1D1E90001FBF72CFA1B
:105F400002460B4620462946FBF726FA02460B4638
:105F500003A1D1E90001E2E6075C143326A6913CD7
:105F6000182D4454FB21E93F2DE9FF4755EC104B18
:105F7000AD4925F000428A424FEAD57633D9AB4984
:105F80008A4214D892A3D3E9002320462946FBF77E
:105F90004BFE00BB90A3D3E9002320462946FBF724
:105FA00025FE002800F0A080002400250EE0C5F3A7
:105FB00013032343224607D02B4620462946FBF7EE
:105FC000EDF904460D4601E0002EEDD145EC104BF5
:105FD00004B0BDE8F08782A3D3E900231046194638
:105FE000FBF792FBEDE7924B9A4240F2A980914B6E
:105FF0009A4279D8904B03EBC603D3E9002320469D
:106000002946FBF7C9F98D4BF7003B4493ED007B24
:106010008DED007BC6F1010A80468946AAEB060A8F
:10602000DDE9002340464946FBF7B6F904460D4634
:1060300022462B4620462946FBF766FB6AA3D3E996
:10604000002306460F46FBF75FFB69A3D3E9002355
:10605000FBF7A2F932463B46FBF756FB66A3D3E9B2
:106060000023FBF79BF932463B46FBF74DFB64A34D
:10607000D3E90023FBF790F932463B46FBF744FB9C
:1060800061A3D3E90023FBF789F932463B46FBF7CE
:106090003BFB02460B4620462946FBF77DF90246AC
:1060A0000B4606460F4620462946FBF72DFBCDE959
:1060B0000201BAF1000F5CD100224FF0804330465C
:1060C0003946FBF769F902460B46DDE90201FBF7A9
:1060D00045FC22462B46FBF75FF902460B460020A3
:1060E0005749FBF759F96CE7564B204603EBC606B8
:1060F000294647A3D3E90023FBF706FBD6E9002393
:10610000FBF74CF9FBF7B0FD8246FBF793FA42A38D
:10611000D3E9002306460F46FBF7F6FA02460B4684
:1061200020462946FBF738F93DA3D3E900238046F2
:10613000894630463946FBF7E7FACDE900016FE7BB
:10614000414B9A4210D826A3D3E900232046294682
:10615000FBF724F93A4B0022FBF766FD38B1384BC8
:106160000022204629462AE74FF0000A60E78246CF
:106170005EE732463B4600204FF08041FBF70CF9CA
:1061800002460B46DDE90201FBF7E8FB02460B463F
:10619000DDE90001FBF700F942464B46FBF7FCF84E
:1061A00002460B4600202649FBF7F6F86FF47F7293
:1061B000924502DB01EB0A5103E70AF57A7A01EB1B
:1061C0000A5100224FF0B8730AE700BFAFF3008016
:1061D000EF39FAFE422E864051302DD5104987C046
:1061E0009C7500883CE4377ED0A4BE726937663E59
:1061F000F16BD2C541BDBB3E2CDE25AF6A56113FC7
:1062000093BDBE166CC1663F3E5555555555C53FAD
:10621000FE822B654715F73F0000E0FE422EE63F69
:10622000763C7935EF39EA3D412E8640FFFFEF7F1E
:10623000422ED63FB1A2F03FB8F60200A8F6020007
:106240000000F03FC8F60200FFFF2F3E00000000F4
:106250009FED010B704700BF000000000000F87FB9
:106260002DE9F043DFF88CC01F4C204E204FDFF8A3
:1062700088E000230125206805FA03F802881FFA48
:1062800088F1114207D116F803904288B9F1000F46
:1062900023D00A43428022689088014207D117F830
:1062A0000390D088B9F1000F1AD00843D08010892C
:1062B000014202BF02EB43003CF81380A0F80A80C1
:1062C000508D014202BF02EB83025EF82310D162BF
:1062D0000133102BCFD1BDE8F08322EA0802D9E7C1
:1062E00020EA0800E2E700BF0C070020DB060300FD
:1062F000CB060300C8030300D8F6020030B40E4AF0
:10630000156801232C8803FA00F083B21C432C800B
:10631000126861B151880B435380084B1A6830BC36
:10632000802302F55F7200211E200FF081BE53888A
:1063300023EA0003F0E700BF0C070020100700204D
:1063400010B4012303FA00F00B4B1A68938884B24F
:1063500023439380D38861B12343D380074B5DF8F7
:10636000044B1A680021802302F55F721E200FF093
:106370005FBE23EA0003F0E70C07002010070020AF
:1063800010B40A4B1B6801221C89824022431A81E7
:1063900003EB40031E205981054B5DF8044B1A683E
:1063A0000021802302F55F720FF042BE0C0700202F
:1063B0001007002010B40A4B1B6801225C8D82403C
:1063C00022435A8503EB80031E20D962054B5DF8FA
:1063D000044B1A680021802302F55F720FF028BE7B
:1063E0000C07002010070020012310B503FA01F16B
:1063F000032809D8DFE800F002151C23134B1A68A4
:10640000138823EA01031380FFF72AFF104B1A6851
:10641000BDE81040802302F55F7200211E200FF0BE
:1064200007BE0A4B1A68938823EA01039380EBE7BF
:10643000064B1A68138923EA01031381E4E7034B2F
:106440001A68538D23EA01035385DDE70C0700200A
:106450001007002070B5194D2B782BB9184826F07D
:1064600047FC01232B7070BD164826F041FC164BEB
:106470001A68002414801B689C801C815C85FFF7CF
:10648000EFFE124B1A681E20802302F55F72214630
:106490000FF0CEFD06202C7014F0FEF830B10C4B3E
:1064A00043610223037444748474C474BDE870406F
:1064B000084900234FF4865227F03BB9C64E00200E
:1064C000040403006C0403000C07002010070020E4
:1064D0008704030034F4020002460B46014820F012
:1064E00007BF00BFD80B0020014820F0B7BF00BF96
:1064F000D80B0020014B1870704700BFE54E0020FC
:10650000102898BF0A4B0B4A94BF1B5C002300293C
:1065100013700ADB084B1B68DB8813F0080F14BFED
:1065200002230123054A137070470023FAE700BFD6
:10653000EB060300E14E00200C070020E04E002097
:1065400070B59FED100A0D460F49044625F057FE21
:106550000E4B187023460C4C03F11006186859684E
:10656000224603C20833B3421446F7D1286869684B
:10657000074B03C3A868186024F0B1FF054BC3E9BB
:10658000000170BD0AD7A33BA02F0020C74E0020FA
:10659000942F0020E012002008B50246054B006849
:1065A000516803C39068186024F099FF024BC3E957
:1065B000000108BD882F0020D8120020DFED137ADB
:1065C000B4EEE70AF1EE10FA82B01AD4DFED107AD9
:1065D000B4EEE70AF1EE10FA15DCF3EE097A30EECC
:1065E000670ADFED0C7A30EE000A30EE270AFCEE87
:1065F000C07ACDED017A9DF80430074A137002B0DD
:1066000070470123F9E7FF23F7E700BF00001AC234
:106610000000B14200800043E24E0020E0B164205F
:10662000B2FBF0F262F07F02D0B20A2259B141F21D
:10663000D6018B42B8BF0B46B3FBF2F3F53BFF2B01
:106640000CDCD9B203E093FBF2F3F53BF7D5044B36
:106650001870044B197070470146F8E7FF21F6E700
:10666000E44E0020E34E0020044B10F0050F18709C
:10667000034B0CBF012203221A707047DF4E00202B
:10668000D00A002008B5044B187024F028FF034BF3
:10669000C3E9000108BD00BFDE4E0020C812002083
:1066A0007FB50023CDE900330393204B1B788DF891
:1066B00001301F4B1B788DF802301E4B1B788DF874
:1066C00003301D4B1B788DF8043018238DF80530EE
:1066D00009238DF80630194B1B788DF80830184BBC
:1066E0001B788DF809304FF0FF3040F69D334FF0A6
:1066F000FF31ADF80A306C46FFF7EEFE114A04AEEA
:106700002546234603CBB342106051601C4602F17C
:106710000802F6D124F0E3FE0B4BC3E90001FFF7BA
:10672000E3FE284601F020FE04B070BDE54E0020D7
:10673000E44E0020E34E0020E24E0020E14E002017
:10674000E04E0020C94E0020C81300207FB5804ACB
:10675000DFED806AD2ED017A9FED7F7A012367EE4B
:10676000A67A8DF800307D4BF4EEC77A1B788DF851
:106770000130F1EE10FA00F3C1809FED796AF4EE7A
:10678000C67AF1EE10FA00F1BC80FDEEE77A17EE62
:10679000903A9BB2D2ED027AADF8023067EEA67A5B
:1067A000F4EEC77AF1EE10FA00F3AE809FED6C6A5A
:1067B000F4EEC67AF1EE10FA00F1A980FDEEE77A68
:1067C00017EE903A9BB2D2ED037AADF8043067EE43
:1067D000A67AF4EEC77AF1EE10FA00F39B809FEDF3
:1067E000606AF4EEC67AF1EE10FA00F19680FDEEE2
:1067F000E77A17EE903A9BB2D2ED007AADF8063008
:1068000067EEA67AF4EEC77AF1EE10FA00F388800C
:10681000DFED536AF4EEE67AF1EE10FA00F18380D0
:10682000FDEEE77A17EE903A9BB24E4ADFED4E6AE4
:10683000D2ED007AADF8083067EEA67AF4EEC77AAA
:10684000F1EE10FA72DC9FED466AF4EEC67AF1EED4
:1068500010FA6ED4FDEEE77A17EE903A9BB2D2EDC5
:10686000017AADF80A3067EEA67AF4EEC77AF1EE57
:1068700010FA61DC9FED3A6AF4EEC67AF1EE10FA96
:106880005DD4FDEEE77A17EE903A9BB2D2ED027A34
:10689000ADF80C3067EEA67AF4EEC77AF1EE10FA96
:1068A00050DC9FED2F7AF4EEC77AF1EE10FA4CD45B
:1068B000FDEEE77A17EE903A9BB24FF0FF304FF0C3
:1068C000FF31ADF80E306C46FFF706FE274A04AEE6
:1068D0002546234603CBB342106051601C4602F1AB
:1068E0000802F6D124F0FBFD214BC3E90001FFF7BC
:1068F000FBFD284601F038FD04B070BD47F6FF737C
:1069000048E74FF4004345E747F6FF735BE74FF472
:10691000004358E747F6FF736EE74FF400436BE719
:1069200047F6FF7381E74FF400437EE747F6FF73B6
:1069300095E74FF4004392E747F6FF73A6E74FF45D
:106940000043A3E747F6FF73B7E74FF40043B4E70C
:10695000A02F00200000004700FEFF46E54E00206B
:10696000000000C7942F002000000043C94E002003
:10697000C813002070B588B002238DF81030844B06
:1069800084481B788DF81130834B1B788DF81230BA
:10699000824B1B788DF81330814B00241B780794B1
:1069A00001A9CDE90544CDE901448DF814300394E3
:1069B0000FF054FFDDED016A9DED027ADDED037A03
:1069C000F7EE005A76EEA56A37EE257A77EEA57ACD
:1069D000B6EE006A66EE866A27EE067A67EE867A7B
:1069E0009FED706ACDED016A66EE866A9FED6E6A74
:1069F0008DED027AF4EEC66AF1EE10FACDED037A6F
:106A000000F3A680F5EEC06AF1EE10FA04D4FCEEB5
:106A1000E66A16EE903A9CB29FED646ADFED646A16
:106A200027EE067AB4EEE67AF1EE10FA00F39380E0
:106A3000B5EEC07AF1EE10FA00F19080BCEEC77AA4
:106A400017EE103A9AB267EE867AF4EEE67AF1EE35
:106A500010FA00F38580F5EEC07AF1EE10FA00F13D
:106A60008280FCEEE77A17EE903A9BB244EA8224E9
:106A7000504ADFED516AD2ED007A9FED507A67EE11
:106A8000A67A44EA4354F4EEC77AF1EE10FACDF850
:106A900015406ADC9FED4A6AF4EEC67AF1EE10FA10
:106AA00066D4FDEEE77A17EE903A9BB2D2ED017A0A
:106AB000ADF8193067EEA67AF4EEC77AF1EE10FA67
:106AC00059DC9FED3F6AF4EEC67AF1EE10FA55D428
:106AD000FDEEE77A17EE903A9BB2D2ED027AADF86E
