:020000040000FA
:1010000080920020D5D80100BFE20200C1D80100C3
:10101000C1D80100C1D80100C1D801000000000002
:1010200000000000000000000000000071DA010074
:10103000C1D8010000000000DDD90100C1D80100C5
:101040002DDD01009D3102002DDD01002DDD0100AF
:101050002DDD01002DDD01002DDD01002DDD010064
:101060002DDD01002DDD0100FD2B02002DDD010035
:101070002DDD01002DDD01002DDD01002DDD010044
:101080002DDD01002DDD01002DDD01002DDD010034
:10109000FD2D02002DDD01002DDD01002DDD010003
:1010A0002DDD01002DDD01002DDD01002DDD010014
:1010B0002DDD01002DDD01002DDD01002DDD010004
:1010C0002DDD01002DDD01002DDD01002DDD0100F4
:1010D0002DDD01002DDD01002DDD01002DDD0100E4
:1010E0002DDD01002DDD01002DDD01002DDD0100D4
:1010F0002DDD01002DDD01002DDD01002DDD0100C4
:10110000014B1B685B68184700050020014B1B68FA
:101110009B68184700050020014B1B681B69184796
:1011200000050020014B1B685B6918470005002083
:10113000014B1B689B69184700050020014B1B6889
:10114000DB69184700050020014B1B681B6A184724
:1011500000050020014B1B689B6A18470005002012
:1011600030B4044C9DF8085024680295E468A44605
:1011700030BC60470005002030B50346114890F9A7
:101180001C209A4219DD90F924209A4217DA9A1A03
:10119000846AA05C0C4A15569D420DD00E3200297F
:1011A00018BF01309442C0B206D129B1013BDBB275
:1011B000012B01D80130C0B230BD0D20FCE700206A
:1011C000FAE700BFB80E00206CFF020008B5054B1F
:1011D00093F91C30984203DAFFF7CEFF024B1B56FF
:1011E000184608BDB80E00206CFF020008B5184B69
:1011F00093F82C20FAB9012283F82C20154A1268A2
:10120000A2F10800082803D813490141C90709D5EC
:10121000911F092910D9013212D04FF4DF717420C7
:1012200000F034F80D4A9A62D8221A6283F824201A
:1012300008229A611A7708BD094A0A41D207ECD4FC
:10124000084A9A62D8221A6283F824200422F0E71E
:10125000B80E0020900F0020DEFEFFFFA7FF020067
:10126000EEFCFFFF7AFF0200BFF34F8F0549064BEC
:10127000CA6802F4E0621343CB60BFF34F8F00BF34
:10128000FDE700BF00ED00E00400FA051FB572B6EF
:10129000134B5D6895B9FFF7E7FF2346B2FBF6F203
:1012A0005C1C002AF9D104AEDCB256FA83F303F8D1
:1012B0000C2C0A2234B901A8A847ECE70246002307
:1012C0000A26EDE7631E04AEDCB256FA83F3B0FBE8
:1012D000F2F602FB1600303003F80C0C3046E9E75A
:1012E000540F00204FF08052034BD2F83011196098
:1012F000D2F834215A607047900F002081F00041ED
:1013000002E000BF83F0004330B54FEA41044FEAEA
:10131000430594EA050F08BF90EA020F1FBF54EA85
:10132000000C55EA020C7FEA645C7FEA655C00F021
:10133000E2804FEA5454D4EB5555B8BF6D420CDDF2
:101340002C4480EA020281EA030382EA000083EA75
:10135000010180EA020281EA0303362D88BF30BD15
:1013600011F0004F4FEA01314FF4801C4CEA11316B
:1013700002D0404261EB410113F0004F4FEA0333CA
:101380004CEA133302D0524263EB430394EA050F55
:1013900000F0A780A4F10104D5F1200E0DDB02FAC4
:1013A0000EFC22FA05F2801841F1000103FA0EF258
:1013B000801843FA05F359410EE0A5F120050EF11E
:1013C000200E012A03FA0EFC28BF4CF0020C43FA4F
:1013D00005F3C01851EBE37101F0004507D54FF05C
:1013E000000EDCF1000C7EEB00006EEB0101B1F5AC
:1013F000801F1BD3B1F5001F0CD349085FEA3000F2
:101400004FEA3C0C04F101044FEA445212F5800FFC
:1014100080F09A80BCF1004F08BF5FEA500C50F199
:10142000000041EB045141EA050130BD5FEA4C0C7C
:10143000404141EB0101013C28BFB1F5801FE9D2D9
:1014400091F0000F04BF01460020B1FA81F308BFFC
:101450002033A3F10B03B3F120020CDA0C3208DDC8
:1014600002F1140CC2F10C0201FA0CF021FA02F1A3
:101470000CE002F11402D8BFC2F1200C01FA02F113
:1014800020FA0CFCDCBF41EA0C019040E41AA2BF38
:1014900001EB0451294330BD6FEA04041F3C1CDA00
:1014A0000C340EDC04F11404C4F1200220FA04F020
:1014B00001FA02F340EA030021FA04F345EA0301CA
:1014C00030BDC4F10C04C4F1200220FA02F001FA8C
:1014D00004F340EA0300294630BD21FA04F029460E
:1014E00030BD94F0000F83F4801306BF81F48011A7
:1014F0000134013D4EE77FEA645C18BF7FEA655C1A
:1015000029D094EA050F08BF90EA020F05D054EAEB
:10151000000C04BF1946104630BD91EA030F1EBFF0
:101520000021002030BD5FEA545C05D140004941F4
:1015300028BF41F0004130BD14F580043CBF01F5E7
:10154000801130BD01F0004545F0FE4141F47001CD
:101550004FF0000030BD7FEA645C1ABF19461046A8
:101560007FEA655C1CBF0B46024650EA013406BFA9
:1015700052EA033591EA030F41F4002130BD00BF68
:1015800090F0000F04BF0021704730B54FF4806425
:1015900004F132044FF000054FF0000150E700BFA6
:1015A00090F0000F04BF0021704730B54FF4806405
:1015B00004F1320410F0004548BF40424FF00001F2
:1015C0003EE700BF42004FEAE2014FEA31014FEA35
:1015D00002701FBF12F07F4393F07F4F81F0605184
:1015E000704732F07F4208BF704793F07F4F04BFCF
:1015F00041F40021704730B54FF4607401F00045AC
:1016000021F000411CE700BF50EA010208BF70470B
:1016100030B54FF000050AE050EA010208BF7047FC
:1016200030B511F0004502D5404261EB41014FF465
:10163000806404F132045FEA915C3FF4D8AE4FF06D
:1016400003025FEADC0C18BF03325FEADC0C18BF50
:10165000033202EBDC02C2F1200300FA03FC20FAA1
:1016600002F001FA03FE40EA0E0021FA02F11444EE
:10167000BDE600BF70B54FF0FF0C4CF4E06C1CEA07
:1016800011541DBF1CEA135594EA0C0F95EA0C0F78
:1016900000F0DEF82C4481EA030621EA4C5123EAEB
:1016A0004C5350EA013518BF52EA033541F480111A
:1016B00043F4801338D0A0FB02CE4FF00005E1FBCD
:1016C00002E506F00042E0FB03E54FF00006E1FB17
:1016D00003569CF0000F18BF4EF0010EA4F1FF045A
:1016E000B6F5007F64F5407404D25FEA4E0E6D419A
:1016F00046EB060642EAC62141EA55514FEAC520AB
:1017000040EA5E504FEACE2EB4F1FD0C88BFBCF526
:10171000E06F1ED8BEF1004F08BF5FEA500E50F1D7
:10172000000041EB045170BD06F0004646EA01019D
:1017300040EA020081EA0301B4EB5C04C2BFD4EBCF
:101740000C0541EA045170BD41F480114FF0000EC8
:10175000013C00F3AB8014F1360FDEBF002001F036
:10176000004170BDC4F10004203C35DA0C341BDCB0
:1017700004F11404C4F1200500FA05F320FA04F082
:1017800001FA05F240EA020001F0004221F00041B6
:1017900010EBD37021FA04F642EB06015EEA430E29
:1017A00008BF20EAD37070BDC4F10C04C4F1200559
:1017B00000FA04F320FA05F001FA04F240EA02000C
:1017C00001F0004110EBD37041F100015EEA430EDD
:1017D00008BF20EAD37070BDC4F1200500FA05F2FD
:1017E0004EEA020E20FA04F301FA05F243EA02037C
:1017F00021FA04F001F0004121FA04F220EA02008B
:1018000000EBD3705EEA430E08BF20EAD37070BDD0
:1018100094F0000F0FD101F00046400041EB0101B0
:1018200011F4801F08BF013CF7D041EA060195F092
:10183000000F18BF704703F00046520043EB03034C
:1018400013F4801F08BF013DF7D043EA0603704739
:1018500094EA0C0F0CEA135518BF95EA0C0F0CD044
:1018600050EA410618BF52EA4306D1D181EA03018A
:1018700001F000414FF0000070BD50EA410606BF84
:101880001046194652EA430619D094EA0C0F02D1C9
:1018900050EA013613D195EA0C0F05D152EA03360E
:1018A0001CBF104619460AD181EA030101F000412C
:1018B00041F0FE4141F470014FF0000070BD41F075
:1018C000FE4141F4780170BD70B54FF0FF0C4CF44F
:1018D000E06C1CEA11541DBF1CEA135594EA0C0F6E
:1018E00095EA0C0F00F0A7F8A4EB050481EA030EBB
:1018F00052EA03354FEA013100F088804FEA0333A2
:101900004FF0805545EA131343EA12634FEA02226F
:1019100045EA111545EA10654FEA00260EF0004130
:101920009D4208BF964244F1FD0404F5407402D282
:101930005B084FEA3202B61A65EB03055B084FEA13
:1019400032024FF480104FF4002CB6EB020E75EB10
:10195000030E22BFB61A754640EA0C005B084FEA38
:101960003202B6EB020E75EB030E22BFB61A7546B5
:1019700040EA5C005B084FEA3202B6EB020E75EB00
:10198000030E22BFB61A754640EA9C005B084FEA78
:101990003202B6EB020E75EB030E22BFB61A754685
:1019A00040EADC0055EA060E18D04FEA051545EA74
:1019B00016754FEA06164FEAC30343EA52734FEA1D
:1019C000C2025FEA1C1CC0D111F4801F0BD141EA96
:1019D00000014FF000004FF0004CB6E711F4801FFB
:1019E00004BF01430020B4F1FD0C88BFBCF5E06FDB
:1019F0003FF6AFAEB5EB030C04BFB6EB020C5FEAEB
:101A0000500C50F1000041EB045170BD0EF0004E3F
:101A10004EEA113114EB5C04C2BFD4EB0C0541EA71
:101A2000045170BD41F480114FF0000E013C90E66E
:101A300045EA060E8DE60CEA135594EA0C0F08BF32
:101A400095EA0C0F3FF43BAF94EA0C0F0AD150EA31
:101A500001347FF434AF95EA0C0F7FF425AF1046C4
:101A600019462CE795EA0C0F06D152EA03353FF4EC
:101A7000FDAE1046194622E750EA410618BF52EA69
:101A800043067FF4C5AE50EA41047FF40DAF52EA3D
:101A900043057FF4EBAE12E74FF0FF3C06E000BFDA
:101AA0004FF0010C02E000BF4FF0010C4DF804CDE7
:101AB0004FEA410C7FEA6C5C4FEA430C18BF7FEAA7
:101AC0006C5C1BD001B050EA410C0CBF52EA430CD5
:101AD00091EA030F02BF90EA020F0020704710F155
:101AE000000F91EA030F58BF994208BF90422CBFE4
:101AF000D8176FEAE37040F0010070474FEA410CDD
:101B00007FEA6C5C02D150EA013C07D14FEA430CFA
:101B10007FEA6C5CD6D152EA033CD3D05DF8040B6B
:101B2000704700BF8446104662468C46194663469D
:101B300000E000BF01B5FFF7B7FF002848BF10F174
:101B4000000F01BD4DF808EDFFF7F4FF0CBF0120B9
:101B500000205DF808FB00BF4DF808EDFFF7EAFF35
:101B600034BF012000205DF808FB00BF4DF808EDF0
:101B7000FFF7E0FF94BF012000205DF808FB00BFE5
:101B80004DF808EDFFF7CEFF94BF012000205DF86F
:101B900008FB00BF4DF808EDFFF7C4FF34BF01207C
:101BA00000205DF808FB00BF4FEA410C7FEA6C5C47
:101BB00002D150EA013C0AD14FEA430C7FEA6C5C47
:101BC00002D152EA033C02D14FF0000070474FF0BF
:101BD000010070474FEA410212F5001215D211D5EB
:101BE0006FF47873B3EB625212D94FEAC12343F01A
:101BF000004343EA505311F0004F23FA02F018BF9C
:101C0000404270474FF00000704750EA013005D164
:101C100011F0004008BF6FF0004070474FF0000027
:101C2000704700BF4FEA4102B2F1E04324BFB3F571
:101C3000001CDCF1FE5C0DD901F0004C4FEAC00243
:101C40004CEA5070B2F1004F40EB830008BF20F027
:101C50000100704711F0804F21D113F13872BCBFE1
:101C600001F00040704741F480114FEA5252C2F136
:101C70001802C2F1200C10FA0CF320FA02F018BF7F
:101C800040F001004FEAC1234FEAD32303FA0CFCD2
:101C900040EA0C0023FA02F34FEA4303CCE77FEA61
:101CA000625307D150EA01331EBF4FF0FE4040F4AB
:101CB0004000704701F0004040F0FE4040F400005A
:101CC000704700BF7BB972B90029BEBF00204FF03A
:101CD000004106E008BF00281CBF6FF000414FF034
:101CE000FF3000F057B8ADF1080C6DE904CE0029C3
:101CF00009DB002B1ADB00F0A0F8DDF804E0DDE9D9
:101D0000022304B07047404261EB4101002B1BDB12
:101D100000F093F8DDF804E0DDE9022304B040426E
:101D200061EB4101524263EB43037047524263EB64
:101D3000430300F082F8DDF804E0DDE9022304B09B
:101D4000404261EB41017047524263EB430300F0B4
:101D500074F8DDF804E0DDE9022304B0524263EBDD
:101D60004303704753B94AB9002908BF00281CBF74
:101D70004FF0FF314FF0FF3000F00CB8ADF1080C20
:101D80006DE904CE00F059F8DDF804E0DDE9022346
:101D900004B07047704700BF08B5FFF7A3FABDE86D
:101DA0000840FFF723BA801A00F3070038B540B2A5
:101DB0000D4659B21446FFF709FA002328706B70DC
:101DC000204440B238BD00230360704770470020B4
:101DD00070474FF0FF3070474FF0FF30704770474B
:101DE0004FF0FF30704700207047002070470023FD
:101DF000037070479DF800300022FFF7D4BF4FF00A
:101E0000FF307047002070474FF0FF3070474FF0B1
:101E1000FF307047704710F8012B11F8013B012A81
:101E200028BF9A42F7D0D01A7047034613F8012B07
:101E3000002AFBD1181A013870472DE9F047864671
:101E40008C460846089E154674461946002B40F0FD
:101E5000C2808542B2FA82F245D94AB1C2F120036A
:101E600000FA02FC2EFA03F3954043EA0C0C94406E
:101E70004FEA154EA8B2BCFBFEF8230C0EFB18CCA3
:101E800008FB00F943EA0C43994528D9EB1808F1FF
:101E9000FF3704D2994502D9A8F102072B44A3EBDE
:101EA0000903A4B2B3FBFEFC0EFB1C330CFB00F0D9
:101EB00044EA0344A04214D92C190CF1FF3304D294
:101EC000A04202D9ACF102032C44241A43EA074091
:101ED0001EB1D440002334607360BDE8F0874746EC
:101EE000DDE76346F1E792BB431B01214FEA154E44
:101EF000AFB2B3FBFEFC200C0EFB1C330CFB07F84F
:101F000040EA0343984562D9EB180CF1FF3004D244
:101F1000984502D9ACF102002B44A3EB0803A4B20C
:101F2000B3FBFEFC0EFB1C330CFB07F744EA034437
:101F3000A7424ED92C190CF1FF3304D2A74202D983
:101F4000ACF102032C44E41B43EA0040C0E7C2F1B9
:101F5000200320FA03F1954090402EFA03F3034347
:101F60004FEA154EAFB2B1FBFEFC0EFB1C10190C74
:101F70000CFB07F841EA0041884504FA02F422D933
:101F800069180CF1FF3004D2884502D9ACF1020087
:101F90002944A1EB08019BB2B1FBFEFC0EFB1C1116
:101FA0000CFB07F743EA01439F420ED9EB180CF1F3
:101FB000FF3104D29F4202D9ACF102012B44DB1B5A
:101FC00041EA004192E76046E3E76146F7E7604691
:101FD000A3E76346B7E7834206D916B9002108464E
:101FE0007BE7C6E900E0F9E7B3FA83F78FB98342EC
:101FF00001D3724508D8BEEB020460EB0303012055
:102000009C461EB9002168E73846FAE7C6E9004C4D
:10201000F8E7C7F1200CBB4022FA0CF41C432EFA5F
:102020000CF120FA0CF3B84001434FEA14490EFAC0
:1020300007F5B3FBF9F81FFA84FE09FB18300B0C07
:1020400008FB0EFA43EA00439A4502FA07F240D928
:10205000E31808F1FF3004D29A4502D9A8F1020032
:102060002344A3EB0A0389B2B3FBF9F809FB183345
:1020700008FB0EFE41EA03418E452CD9611808F198
:10208000FF3304D28E4502D9A8F10203214443EA6A
:102090000040A0FB0298A1EB0E014145CE4643460D
:1020A00002D306D14D4504D2B9EB020E68EB04030E
:1020B0000138002EA6D0B5EB0E0261EB030101FA48
:1020C0000CFC22FA07F34CEA0303F940C6E900319D
:1020D00098E74046C5E74346D9E700000000000006
:1020E000F0B514461A4AA0FB020302FB0131C00BF3
:1020F00085B040EA414014A3D3E90023C90BFFF7A0
:1021000031FE0546194610460023124AFFF72AFE03
:1021100006461946104600230D4AFFF723FE0746E0
:102120001946104600234FF47A72FFF71BFE009702
:10213000CDE90102334608482A4621462BF056F9DC
:1021400005B0F0BDAFF3008000A493D600000000FE
:1021500040420F00008793030817030000000000AF
:102160002DE9F04FC7B014F0CBFA38B14FF08043EF
:102170005722C3F81C2500202AF08DFA1AF000FE21
:1021800018F02EFC002840F0D780002140F6CD400A
:1021900027F034F96A486B4C6B4D2BF027F91F235D
:1021A0001920CDE9013013236848009303220D2341
:1021B00040F2EA712BF01AF905F0CCFF644B186875
:1021C0001B798DF84C30634B129018681B798DF891
:1021D0005430614B14909A8818689B798DF87E3042
:1021E0005E4BADF87C209A88ADF884205C4A1E9046
:1021F000186851689B79209010688DF8863026AB5E
:1022000003C3584B584A186851681B7916901068D8
:102210008DF85C3028AB03C312891A80534B1868C1
:102220009A889B798DF88E30514B2290CDE90943E5
:10223000504BADF88C2018681B798DF864304E4BEC
:10224000189018689B88ADF874304C4B0B934C4B2E
:102250004C4A1C90186851681B791A9010688DF8C8
:102260006C302BAB03C31189927A19809A70464B5C
:102270000C93A3F54023454AA3F61973CDE90D3419
:10228000434B10685168CDE90F352EAB03C39068FE
:102290001860404B34AA03F10806186859681446C0
:1022A00003C40833B3422246F7D13B4A1868206082
:1022B0001B7910685168237131AB03C390681860B3
:1022C000364B38AA03F1080618685968144603C447
:1022D0000833B3422246F7D118681B792371304B7B
:1022E00020609A8818689B7911952490ADF8942005
:1022F0008DF896301AF02CFD14220746002141A8D3
:102300002DF0D9F8052241A9384606F063FB0646B0
:102310000028EFD0419805F00DFF012E02D0429821
:1023200005F008FFDDF8048112A94046FFF773FDB0
:10233000C0BB05F00FFFDDE7012027F09BF81FE78A
:102340009C1703006D616700616C6C00C717030088
:102350005F1D03004F5D0300641D03006B1D030040
:10236000CF5B030067530300721D03007C1D030055
:1023700073657400831D0300881D03006466750087
:10238000241E03008E1D03007A726F00991D030046
:1023900062617400A51D0300B21D0300BE1D030091
:1023A000CB1D030014A94046FFF735FD0546002864
:1023B00040F01182CA48CB4C2BF018F81F2319218A
:1023C000CDE901311323032240F2EA71C64800939C
:1023D0000D232BF00BF8C5482BF008F8C4482BF060
:1023E00005F8C4482BF002F8C3482AF0FFFF236821
:1023F000B3F8763303F07F037F2B00F0B38110F046
:1024000043FA0146BD482AF0F1FF236893F87A3376
:10241000FF2B08D013F0800FB94BBA49BA4818BF48
:1024200019462AF0E3FF2368B84893F87A23B3F8F3
:1024300076132AF0DBFF2368B3F8783303F07F03C9
:102440007F2B00F0918110F02FFA0146B0482AF05E
:10245000CDFF236893F87B23FF2A10D012F0800F62
:10246000B3F87833A64AA749AA4818BF114613F013
:10247000800FA94BA94A18BF1A462AF0B7FF236854
:10248000A24893F87B23B3F878132AF0AFFFA44B4C
:102490001B68DB889A0640F16981A248DFF8C0A278
:1024A0002AF0A4FF0027266806EB87060137D6F836
:1024B0004401FFF787F88046D6F868018946FFF7A0
:1024C00081F8CDE90401D6F85C01FFF77BF8CDE98E
:1024D0000201D6F85001FFF775F84246CDE9000138
:1024E0004B4650462AF082FF032FDCD1D4F80080FF
:1024F000DFF86C92D8F8FC00FFF764F80646D8F8CD
:1025000004010F46FFF75EF8CDE90201D8F800019B
:10251000FFF758F83246CDE900013B4682482AF0E1
:1025200065FF82482AF062FF236803EB85080135C6
:10253000D8F81401FFF746F80646D8F838010F46D8
:10254000FFF740F8CDE90401D8F82C01FFF73AF87D
:10255000CDE90201D8F82001FFF734F83246CDE981
:1025600000013B4648462AF041FF032DDCD110F024
:10257000ABF901466E482AF039FF5F482AF036FF72
:1025800023686C4893F8655093F866106A4B002DE9
:1025900008BF18462AF02AFF4FF080526748D2F849
:1025A000A830D2F8A4209BB22AF020FF2268644908
:1025B000D2F869306348B2F86720002D18BF08468A
:1025C00042EA03421B0C2AF011FF4B482AF00EFF8F
:1025D00012F018FA834612F023FA12F071F98246CB
:1025E00012F024FA07460E4612F012FB0546894601
:1025F00012F022FABBF1000F0446884640F3DC805B
:102600002CF0E0FE504AC01B61EB0603A0FB020168
:1026100002FB0311C00B40EA41402FA3D3E9002382
:10262000C90BFFF79FFB1946064600231046474A91
:10263000FFF798FB074650461EB9FBB2002B00F08F
:10264000AF80FEF7ADFF424B0022FFF73DF9CDE929
:10265000006702460B463F482AF0C8FE55EA0903C8
:1026600000F0B180384BA5FB030103FB0911C00B3F
:1026700040EA414018A3D3E90023C90BFFF772FBDE
:102680000546194610460023304AFFF76BFB2946E2
:10269000024631482AF0AAFE54EA080300F0978067
:1026A000294BA4FB030103FB0811C00B40EA414086
:1026B00009A3D3E90023C90BFFF754FB04461946CD
:1026C00010460023214AFFF74DFB024623482146CE
:1026D0002AF08CFE0EE600BF00A493D60000000096
:1026E0002218030028070020C7170300451803001D
:1026F0005B1803006A180300E76403008D180300E9
:10270000341703003817030096180300A5180300B8
:10271000BA180300CD1803003C170300E864030057
:1027200024070020DE1803003019030050190300AD
:1027300066190300471703005717030073190300B6
:10274000691703008417030040420F0000879303BA
:10275000000059408C190300E7190300271A0300F1
:10276000F6180300C1494DE6C0496FE6D4F8008071
:10277000D8F8F000FEF726FF0646D8F8F8000F4616
:10278000FEF720FFCDE90201D8F8F400FEF71AFFAA
:102790003246CDE900013B46B5482AF027FEA5E6C2
:1027A000FEF7FEFEB34B0022FFF78EF802460B4603
:1027B000B1482AF01BFE51E73E430CBFAF48B0487A
:1027C0002AF014FE4AE7AF482AF010FE64E7AE484C
:1027D0002AF00CFE8EE51EA94046FFF71CFBB0B99F
:1027E0002CF0F0FDA94A0D460446FFF779FCA84BF2
:1027F0001B68D3E90401D3E90223801A61EB0301CA
:102800000019A44A41EB0501FFF76AFC72E520A913
:102810004046FFF700FB10B929F03DFF6AE526A905
:102820004046FFF7F8FA002840F00D8112F0E4F876
:10283000014699482AF0DAFD12F0E4F8804612F0D9
:10284000EFF8814612F03CF8064612F0EFF8B8F1C6
:10285000000F04460D4640F3D6803046FEF7A0FE3A
:10286000844B0022FFF730F8064648460F46CDF865
:102870000880FEF795FE7F4B0022FFF725F83246D1
:10288000CDE900013B4685482AF0B0FD54EA050336
:1028900000F0BD802CF096FD001B814A61EB050124
:1028A000FFF71EFC12F0C8F88146884612F014F9B2
:1028B00007460E4612F05EF905460C4612F0A8F9DE
:1028C00050EA010300F0A780764AFFF709FC59EAB5
:1028D000080300F0A480744A48464146FFF700FC14
:1028E00057EA060300F09F80704A38463146FFF7EA
:1028F000F7FB55EA040300F09A806D4A284621460A
:10290000FFF7EEFB29F061FE054629F06BFE044659
:10291000284611F0D5FF8246204611F0D1FF8046AF
:1029200029F06DFE45EA04031B0407460E4600F13C
:10293000828050EA01037ED04046FEF731FE4D4BC7
:102940000022FEF7C1FF804628468946FEF728FE92
:10295000484B0022FEF7B8FFCDE904012046FEF700
:102960001FFE444B0022FEF7AFFFCDE902015046A7
:10297000FEF716FE3F4B0022FEF7A6FF4246CDE9CA
:1029800000014B464B482AF031FD4B4A3846314650
:10299000FFF7A6FB12F0A2F9064612F0C5F90446AD
:1029A00012F0DAF944EA00030746180447D4204637
:1029B000FEF7F6FD2F4B0022FEF786FF06EB86069C
:1029C0000446F0B20D46FEF7DBFDCDE902013846C4
:1029D000FEF7E6FD274B0022FEF776FF2246CDE903
:1029E00000012B4635482AF001FD12F053F9FEF79D
:1029F000C7FD334B0022FEF767FF02460B46314806
:102A00002AF0F4FC76E430482AF0F0FC3EE72F4848
:102A10002AF0ECFC46E71B482AF0E8FC57E71A4886
:102A20002AF0E4FC5CE72A482AF0E0FC61E7294848
:102A30002AF0DCFC66E728482AF0D8FCAAE72748F9
:102A40002AF0D4FCD1E716A94046FFF7E4F918B9FB
:102A5000012011F01BFC4DE428A94046FFF7DBF9EB
:102A600000283DD107F0D4FD44E400BF2617030041
:102A70000B19030000005940B2190300C3190300E9
:102A8000B51A0300051A0300491A03006F1A030060
:102A900028070020761A0300821A03008E1A03000A
:102AA000C41A0300E61A0300F91A03000F1B0300FF
:102AB0003F1B03006F1B0300AF1B0300DE1B030063
:102AC00000003440231C0300B41A0300D11A030091
:102AD0001F1B03004F1B0300C21B03000F1C03003E
:102AE00022A94046FFF797F910B907F09BFD01E4D2
:102AF00009A94046FFF78FF928B90121002006F007
:102B00008DFBFFF7F7BB0AA94046FFF784F900BB2E
:102B1000022E01D0B5485BE64298102129F02CF82E
:102B2000B34ACDE9000105460C463CA811212AF024
:102B30006AFC55EA04030AD042993CA8FFF76BF9F6
:102B400028B92846214605F03BFAFFF7D3BBA94830
:102B50003EE618A94046FFF75EF918B905F022FADB
:102B6000FFF7C8BB1CA94046FFF755F918B905F097
:102B700083FAFFF7BFBB0BA94046FFF74CF928B912
:102B80004FF080435722C3F81C2545E61AA940465A
:102B9000FFF741F9002838D12CF014FC41F248220B
:102BA0000023FFF78FF810461946EA220023FFF7AB
:102BB00089F804461946104600232722FFF782F8B9
:102BC00016461D46C7B22946304603220023FFF7AA
:102BD00079F8894BD2B2304613F8028029460D228B
:102BE0000023FFF76FF8854B854AC0B2E4B253F873
:102BF00020300093834B52F8242053F8273082482A
:102C000041462AF0F3FBFFF775BB2BA94046FFF7BF
:102C100002F998BB022E7FF47DAF429C0CA920469E
:102C2000FFF7F9F8014620B9012206F0B5F9FFF7E0
:102C300061BB0DA92046FFF7EEF820B9012106F08F
:102C400049FAFFF757BB0EA92046FFF7E4F8002822
:102C50003FF453AF0FA92046FFF7DDF818B912F083
:102C600091F8FFF747BB10A92046FFF7D4F818B931
:102C700013F0CCFCFFF73EBB6448A9E52EA938460B
:102C8000FFF7C9F80446E0B9DFF8A481604F0646B3
:102C9000214640462AF0AAFB5E4B33F814900025EB
:102CA0007119A94589B205DC0134042C3FF422AB2B
:102CB0000E46EDE757F8212057482AF097FB0135DB
:102CC000EEE734A94046FFF7A6F80446002840F096
:102CD000B380032E7FF41EAF429824A9FFF79BF820
:102CE000054630BB802027F09DFAAC2300933CAA18
:102CF000439BADF8F0508021044616F095FC08B1D6
:102D0000464865E5464D28688022214600F55F70FB
:102D10002CF0C3FB03F068FA2A68802302F55F7287
:102D200000211E2013F070FB20462CF075FB3D485F
:102D30004EE50A214398DFF8DCA028F000FFDDF81B
:102D400008B10546584605F067FA314A80462346E1
:102D50003AF8021B0691002721E0B8F1000F1BDAB8
:102D6000079352F826105846FFF755F8284A079B54
:102D7000A0B9022C28D0032C30D0012C1CD0012D5E
:102D800031D805F00101484603F07CFA204B264873
:102D900053F826102A469BE4B045EAD0013706993D
:102DA00013FA87F68F421FFA87F9B6B2D5DB0134E2
:102DB000042C3FD03346CBE7012D14D805F0010198
:102DC000484603F081FAE1E705F50043B3F5803F9B
:102DD00009D229B2484603F097FAD7E72946484670
:102DE00003F0ACFAD2E71148F2E400BF371C03004D
:102DF000541C03005C1C0300D21D03006800030088
:102E0000B40003009C0003006D1C03009A1C030027
:102E1000B0060020F40C0300B81C0300C01C030023
:102E200028070020D71C0300E71C0300FE1C03003A
:102E3000AC1C03007948CBE431A93846FEF7EBFF20
:102E4000002840F0A080022E7FF464AE429F11A9BA
:102E50003846FEF7E0FF80BB0024DFF8E081DFF8B2
:102E6000D09126461CE0022CD9F800201CD0032C5F
:102E70001FD0012C14BF5288D2882A4102F00102CF
:102E80006749684851F823102AF0B0FA01357319E0
:102E9000BD429BB2E7DB0134042C3FF42BAA1E4653
:102EA00038F814700025F2E702EB4502B2F90A2067
:102EB000E6E702EB8502D26AE2E724A93846FEF78C
:102EC000AAFF0546C0B9AD2027F0ACF9564BADF8C6
:102ED000F0501B6880220446009203F55F733CAA01
:102EE000AD2116F021FB514821462AF07FFA2046F9
:102EF0002CF092FAFFF7FEB9384605F08DF900255F
:102F0000DFF838A1464B8046A9463AF802BB0024B8
:102F10002EE0B8F1000F1CDA53F826103846FEF701
:102F20007AFF3F4BB0FA80F0400900B3404B022DCE
:102F30001B6813D0032D16D0012D14BF5A88DA88D0
:102F4000224102F00102364B364853F82610FFF7B3
:102F5000BFBBA6EB080148424841E6E703EB440348
:102F6000B3F90A20EFE703EB8403DA6AEBE70134F5
:102F700009EB04065C45B6B2CBDB0135042D3FF40A
:102F800059AFB146C1E738A93846FEF744FF0028DB
:102F900041D1022E7FF4BEAD429F11A93846FEF703
:102FA0003AFF18B903F01AFAFFF7A4B9384605F04A
:102FB00033F90024DFF88480194B0646A14638F81F
:102FC00002BB00251AE0002E13DA53F82010384611
:102FD000FEF721FF124BB0FA80F0400968B151466C
:102FE000A0B203F0C5F9429912482AF0FFF9FFF7A1
:102FF00081B9321A50425041F0E7013519FA85F093
:103000005D451FFA85FA80B2DDDB0134042C3FF404
:1030100011AF8146D3E70848FFF7DABB0D1D030067
:10302000B0060020281D0300280700209218030086
:10303000240700203C1D03004E1D0300F40C030078
:103040002DE9F04F89B01F46DB000593139B0390D9
:10305000DB000493139B079223EAE373DB000D4626
:1030600006934FF00008079B98452BDB09B0BDE89D
:10307000F08FDBE90023F4E80201FEF7FBFA0B46D0
:103080000246DDE90001FEF73FF9049BCDE90001AE
:103090009B4409F101099DED007BB9458AED007B58
:1030A000E7DB0AF1080A0136129B03EBC60B139B00
:1030B0009E420BDA9FED0A7B2C468DED007B4FF094
:1030C0000009E8E7DDF80CA00026EDE7069B039A6F
:1030D0001A44059B03921D4408F10108C3E700BF91
:1030E00000000000000000002DE9F74F0F461C46CD
:1030F0001946064638469046651E0EF033FFA31E5D
:103100009FED257B9FED266BE24304FB03316FF0BF
:10311000070004FB0545183E4FEAC409D20007EB3F
:10312000C101A0EBC400ED000196A7F1100B002B2C
:1031300002DC03B0BDE8F08F019E03F1010C2E44C8
:103140000BEB050EA44512DB58F823609E420AD013
:1031500004FB063607EBC606B6468A469C46A445DF
:1031600010DB86ED006B013B11440544DFE796ED73
:10317000005B0CF1010C8EED005B86ED007BCE4414
:103180004E44DFE79EED005B0CF1010CAAEC025B04
:10319000AEEC027BE3E700BF00000000000000008F
:1031A000000000000000F03F2DE9F04F2DED048BF2
:1031B0008FB0DDE91C541F4604FB05F300EBC3038D
:1031C00003EBC40999ED007B4FEAC40808F1080637
:1031D00003EBC50B03930BEB0603CDE90C0109923E
:1031E00051EC170B0293D3E900238DED0A0B8DED03
:1031F000047BFEF787F87E4B0022FEF73BFA0BEBD1
:1032000008030893039BCDE900019919089BD1E9B4
:103210000001D3E90023FEF72DFADDE90023CDE913
:10322000060110461946FEF725FADDE90623FEF7EA
:103230006BF8DDE90A2382468B46DDE90401FEF7DF
:1032400063F8C9E90001029BDDE90A01D3E9002323
:10325000FEF75AF8029BC3E90001099B03EB08093A
:1032600033440993BB19CDE904010A9300220023DA
:1032700050465946B844FEF78DFC002800F0938074
:103280004BEC10AB27F022FA00220023DDE900010D
:1032900057EC106BFEF760FC32463B4600287DD0B1
:1032A000DDE90001FEF72EF882468B4602460B460A
:1032B000DDE90401FEF728F85246C9E900015B4642
:1032C000DDE90601FEF700FB0B4602990246D1E953
:1032D0000001FEF717F8099B9FED437BC3E900014E
:1032E0000A9B88ED007B83ED007B089BD3E9008976
:1032F00042464B4640464946FEF7BCF95246064612
:103300000F465B4650465946FEF7B4F902460B4657
:1033100030463946FDF7F8FF41EC100B27F0D6F99F
:1033200057EC106B404632463B464946FEF7CCFA16
:103330003B4641EC190B324650465946FEF7C4FA5B
:10334000B0EE491AF0EE691A41EC180B22460398C8
:10335000B0EE480AF0EE680A294628F001FFB0EE08
:10336000491AF0EE691AB0EE480AF0EE680A0C98B5
:103370002246294628F039FFB0EE491AF0EE691AC4
:10338000B0EE480AF0EE680A0D98224629460FB0C2
:10339000BDEC048BBDE8F04F28F075BFDDE90001FE
:1033A000FDF7B2FF80E7DDE90023DDE90401FDF769
:1033B000ABFF099B5246C9E90001C3E900012BF0AC
:1033C000004343EC102B27F081F954EC103B0A9A90
:1033D00088ED000BBB5104F1004353600FB0BDEC0E
:1033E000048BBDE8F08F00BF00000000000000006B
:1033F0000000E03F000000002DE9F04FA9B059ECBB
:10340000118B0693531E19920793339A069B1890BB
:1034100002FB03F4069B2791DB000A93069B00EB5B
:10342000C40404EBC30BDBE900679D18304653EC82
:10343000102B39468DED000BFDF764FF32463B46FD
:10344000FEF718F904EBC50A42464B46FDF75CFF50
:10345000DAE90023FEF738FADBE90223FDF754FF2F
:10346000DAE902238046894630463946FDF74CFFAB
:10347000DDE90023FDF746FF339B1D4404EBC50542
:1034800095ED027B06460F46404629F00041324644
:1034900027F000438DED007BFDF736FFDDE90025C9
:1034A00025F00043FDF730FFCDE9080102460B4649
:1034B00040464946FEF708FADDE90823804689467A
:1034C00030463946FEF700FADDE90823CDE902016E
:1034D000DDE90001FEF7F8F9339BDB000D930833BB
:1034E0001293CDE90001CDF820A0069B339ADDF8B8
:1034F00018A003EB420304EBC3030C930A9B083BA5
:1035000004EB030B079B9A4502DD29B0BDE8F08F61
:10351000069B9A4548DD079B9A4500F0E4800C9B8A
:1035200013ED027B089BDBE9006753E9024527F0B6
:103530000043CDE91B3425F000431A961D93DDE9C5
:103540001C23DDE91A018DED007BFDF7DDFE009BFC
:103550001E93019B23F000431F93DDE91E23FDF71B
:10356000D3FE02460B46CDE9042300220023FEF7DA
:10357000E9FA002840F0AC80DDE904233046394602
:10358000FEF7A2F9DDE90423804689462046294654
:10359000FEF79AF9DDE90423CDE90201DDE9000136
:1035A000FEF792F9CDE9000142464B4640464946B6
:1035B000FEF760F8DDE9022304460D461046194681
:1035C000FEF758F802460B4620462946FDF79CFEBA
:1035D000DDE9002304460D4610461946FEF74AF879
:1035E00002460B4620462946FDF78EFE41EC100BA5
:1035F00027F06CF8002200234046494655EC104B5A
:10360000FEF7AAFA28B105F1004320942193DDE9E1
:103610002045069B9A4569DD05F1004323932294DA
:10362000DDE90423DDE92201FEF724F8CBE90001FE
:1036300022462B4640464946FDF766FE22462B466B
:1036400080468946FEF740F922462B46CDE9040123
:10365000DDE90201FEF738F922462B46CDE90E01DD
:10366000DDE90001FEF730F94246CDE910014B4695
:10367000DDE90201FEF728F94246CDE902014B4699
:10368000DDE90001FEF720F9CDE900010C9D089C61
:103690000BF108065746339B9F4238DB199A189C5A
:1036A0000AF103039342A8BF134626934FEACA03C5
:1036B0000A93083313930A9B103314930025269B17
:1036C000AB4273DA329C0025339B9D42C0F2C98025
:1036D000129A089B134408930C9B13440AF1010AA5
:1036E0000C9393440EE79FED8C7B1BE7069B279A78
:1036F00093429DD0DBF800302493DBF8043003F1D3
:10370000004325939DED247B8BED007B90E7D4E96E
:103710000023DDE902010A94FDF7ACFFD6E900239E
:10372000FDF7F2FD079B9A45804689461FD095ED2F
:10373000007BDDE9002351EC170B8DED0A7BFDF7D3
:1037400099FF02460B4640464946FDF7DDFD02461D
:103750000B4680468946DDE91001FDF78BFF0246E6
:103760000B46DDE90A01FDF7CDFDC5E90001DDE904
:103770000E2340464946FDF77DFF02460B46D4E93D
:103780000001FDF7BFFDDDE90423E4E80201404646
:103790004946FDF76FFF02460B46D6E90001FDF7EB
:1037A000B1FD0137E6E80201083574E70A9BE61827
:1037B000139BDDE904011F19D6E90023FDF75AFF29
:1037C000D7E9002380468946DDE90E01FDF752FF67
:1037D0000B46024649464046FDF796FD079B9A4533
:1037E0008046894623D0149B234493ED007B159398
:1037F00051EC170BDDE910238DED167BFDF73AFF39
:1038000002460B4640464946FDF77EFD02460B4602
:1038100080468946DDE90001FDF72CFF0B46024694
:10382000DDE91601FDF76EFD159BC3E90001DDE939
:10383000022340464946FDF71DFF02460B46D7E9E5
:103840000001FDF75FFDC7E900014B46D6E9000125
:103850004246FDF757FD0D9BC6E9000101351C44AA
:103860002DE70A9BE618139BDDE904011F19D6E931
:103870000023FDF7FFFED7E9002380468946DDE9F6
:103880000E01FDF7F7FE0B46024649464046FDF79E
:103890003BFD079B9A458046894623D0149B2344D1
:1038A00093ED007B159351EC170BDDE910238DEDA3
:1038B000167BFDF7DFFE02460B4640464946FDF704
:1038C00023FD02460B4680468946DDE90001FDF7EF
:1038D000D1FE0B460246DDE91601FDF713FD159BEF
:1038E000C3E90001DDE9022340464946FDF7C2FE77
:1038F00002460B46D7E90001FDF704FDC7E90001C8
:103900004B46D6E900014246FDF7FCFC0D9BC6E99B
:1039100000011C440135D7E6000000000000000053
:103920002DE9F04FA7B01D46309B249103FB05F411
:1039300000EBC4049A491790EB001493002004EBA9
:10394000C503C3E9000130990793CE00C6EBC50358
:103950001C446FF007039B1B9FED8F7B1593079B08
:10396000CDE91043249B8DED220B8DED0A7B8DED6F
:10397000027B02EBC50203EBC50305F1FF3B169288
:10398000AA462593149BBBF1000FA4EB030902DAAE
:1039900027B0BDE8F08F259B109993ED007B51E98E
:1039A000020153EC172B8DED127BFDF7ABFC09EBFD
:1039B000CA031F46309B94ED007B03FB0AF8149B5F
:1039C000CDE9040103EBC8088DED007B179BD146C0
:1039D0009844A94549DB169B33ED027B00221693E0
:1039E00051EC170B00238DED0C7BFEF7B5F830BBC7
:1039F000DDE90C0100220023FEF7A4F8002849D0DD
:103A0000009B0E93019B03F100430F93DDE904013A
:103A100000220023FEF796F8002838D1DDE90423C0
:103A2000DDE90E01FDF750FFC4E900019DED0A7BC1
:103A30008DED007B9DED027B8DED047BDA46079BCF
:103A4000159A9B1B9DED007B0793109B13448DEDF6
:103A50000A7B10939DED047B119B13448DED027B3B
:103A60000BF1FF3BA41B11938CE7D8E90023F7E887
:103A70000201FDF7FFFD02460B46DDE90001FDF7FF
:103A800043FC09F10109CDE90001B044A1E7DDE9FA
:103A90002223C5E7109B93ED007B119B8DED087BE6
:103AA00013ED027B249B03EBCB01D1E90001DDE99F
:103AB00012238DED207BFDF725FC02460B46FDF71A
:103AC000D9FDDDE90A23CDE91201DDE90801FDF7A1
:103AD000D1FDDDE9022380468946DDE90001FDF7DD
:103AE000C9FD02460B4640464946FDF70BFCDDE9A1
:103AF0000C238046894610461946FDF7BBFDDDE9DB
:103B00001223FDF701FC02460B4640464946FDF7ED
:103B1000DBFE089B1893099B23F000431993029B3B
:103B20001A93039B23F00043804689461B93DDE9EB
:103B30001A23C4E90089DDE91801FEF72BF8424693
:103B40004B46A8B1DDE90401FDF794FDDDE9002352
:103B5000FDF7DAFB01F100431D931C90DDE908231A
:103B6000DDE91C01FDF7B0FE079BC3E900015DE73D
:103B7000DDE92001FDF77EFDDDE90A23FDF7C4FB49
:103B800001F100431F931E90DDE90223DDE91E01D0
:103B9000E8E700BFAFF30080000000000000000075
:103BA0000000F03F000000002DE9F04F8DB0CDE99E
:103BB0000901169A013A0192169AD6003344A6F1E9
:103BC00008040893019B002B02DA0DB0BDE8F08FCA
:103BD000089B73E902890022089340460023494666
:103BE000FDF7BAFF054600284DD004F108030A9DF1
:103BF0000B93A4F108094FF00008169B984504DBCD
:103C0000019B013B0193083CDCE79FED377B0B9B5D
:103C1000099F8DED047B8DED027BAB4605EB030A1E
:103C2000BBEC027B09EB070351EC170BD3E9002334
:103C30008DED067BFDF71EFD02460B46DDE9020118
:103C4000FDF762FB3B19D3E90023CDE90201DDE971
:103C50000601FDF70FFD02460B46DDE90401FDF705
:103C600053FBDA45CDE904013744D9D19DED027B00
:103C700005EB090383ED007B2B19C3E900013544F3
:103C800008F10108B9E70022002340464946FDF744
:103C900059FF0028B4D00A9F04F1080A1FE09FEDE5
:103CA000127B099B8DED027B03EB0409B84607EB01
:103CB0000A0BD9E90023F8E80201FDF7DBFC024614
:103CC0000B46DDE90201FDF71FFBD845CDE90201F6
:103CD000B144EED13B19C3E9000101353744169BCD
:103CE0009D42DCDB8CE700BF00000000000000000C
:103CF0002DE9F04F2DED048BBDB093464A9A0E93FB
:103D00005D1E02FB03F4EB001E930E9B1D909E1A9A
:103D1000EB0000EBC40408330F9304EBC50704EB7E
:103D2000030AAB1A97ED007B04EBC60604EBC30451
:103D30000F9BCB188DED007B1C9393ED007B0F9BAD
:103D40005B44D6E900891393DDE90003424623F082
:103D5000004129F000438DED3A0B8DED027BFDF71C
:103D600019FFDDE90223002859D0DAE90001FDF747
:103D7000C9FADDE9002301F10041FDF7A5FDC4E921
:103D800000010F9B5BF80300139B5B6803F100418C
:103D9000D7E90023FDF798FDC6E900016E4B00222C
:103DA000C7E900230E9B023B1293129A4A9B53438E
:103DB0001D9A00200021CAE9000102EBC30A0E9AF5
:103DC0004A9B134403F10053013BDB003693083355
:103DD00038934A9BDB0016935B423993531E0BEBDF
:103DE000C3031F931C9B1793169B41EC170BC3F146
:103DF000FF2303F57F03F833CDE90A018DED107B36
:103E000037930AEBC203A3F1100B129B002B8DED2D
:103E1000087B19DA3DB0BDEC048BBDE8F08FD4E926
:103E20000001FDF76FFA41EC120B2046139C42464D
:103E300009F1004394ED003B9FED451B43EC102B33
:103E4000314628F0ABFAA9E71C9B93ED007BDBE938
:103E5000000153EC172B8DED207BFDF753FA0F9BE0
:103E60000AEB030494ED007B8DED007B9FED387B26
:103E70004A9BCDE9060103FB05F88DED027B1D9BF6
:103E80000AEBC50603EBC808A9460E9B994535DB2E
:103E90001F9B73E9026700221F93304600233946B7
:103EA000FDF75AFE002840F0A981139B93ED007B9B
:103EB0001E9B00220AEB03053046002339468DED98
:103EC000047BFDF73FFE002848D0029B2293039B12
:103ED00003F100432393009B2493019B03F10043D0
:103EE00025939DED043B9DED062B9DED221B9DED45
:103EF000240B2146284628F051FA72E1B6EC027BE9
:103F00001E9B434451EC170BD3E900238DED047B3A
:103F1000FDF7B0FB02460B46DDE90001FDF7F4F9C1
:103F20000F9B4344D3E90023CDE90001DDE90401FF
:103F3000FDF7A0FB0B460246DDE90201FDF7E4F9BF
:103F4000169BCDE9020109F1010998449DE700BFE4
:103F500000000000000000000000F03F9BED027B2D
:103F6000169B17995B448DED0C7B93ED007B51E91B
:103F70000401DDE920238DED147BFDF7C3F9024632
:103F80000B4680468946FDF7BFF9DDE90423FDF7BE
:103F900071FB4246CDE920014B4640464946FDF7BC
:103FA00069FB32463B468046894630463946FDF736
:103FB00061FB02460B4640464946FDF7A5F9DDE99F
:103FC000042306460F4610461946FDF753FB0246EA
:103FD0000B4630463946FDF795F902460B4643EC51
:103FE000182B0C9B1A930D9B23F000431B93089BEB
:103FF0001893099B23F00043199300220023FDF737
:10400000A1FD002831D0DDE9200100220023FDF7C9
:1040100099FD002829D0069B2693079B23F0004397
:104020002793DDE92601DDE91A23FDF76DF9149BDD
:104030002893159B23F000432993DDE92823FDF7FE
:1040400063F9DDE91823FDF75FF9049B2A93059BCB
:1040500023F000432B93DDE92A23FDF755F9DDE931
:104060003A23FDF707FB41EC180BDDE90A23DDE9F4
:104070000C01FDF7FFFADDE9022306460F46DDE9F4
:104080000801FDF7F7FA02460B4630463946FDF7C0
:1040900039F9DDE9042306460F46DDE90001FDF7A5
:1040A000E9FA02460B4630463946FDF72BF9DDE9C1
:1040B000102341EC190BDDE90C01FDF7DBFADDE91A
:1040C000002306460F46DDE90801FDF7D3FA024654
:1040D0000B4630463946FDF715F9DDE9042306465F
:1040E0000F46DDE90201FDF7C5FA02460B463046F0
:1040F0003946FDF709F9B0EE482AF0EE682AB0EE2D
:10410000491AF0EE691A41EC100B9DED203B214657
:10411000284628F043F9139BD3E90067369B2C9679
:104120000AEB0309389B0AEB030827F000432D93A1
:10413000DDE92C01DDE91823FDF7E6F8DDE91A23B6
:10414000FDF70AFD00286ED0009B2E93019B03F122
:1041500000432F93DDE90601D5E90023FDF78AFA34
:1041600002460B46DDE92E01FDF7CCF8D4E9002329
:10417000CDE9000130463946FDF77CFADDE90C2334
:10418000FDF7A2FB02460B46DDE90001FDF7BCF896
:10419000029B3093C9E90001039B03F10043319373
:1041A000DDE90601D4E90023FDF764FA02460B4677
:1041B000DDE93001FDF7A6F80F461399D5E9002394
:1041C0000646D1E90001FDF755FADDE90C23FDF7BC
:1041D0007BFB02460B4630463946FDF793F8C8E9AB
:1041E00000019DED0A7B8DED027B9DED107B8DED39
:1041F000007B9DED087B8DED067B129D399B9A44DB
:10420000129B9DED027B013B1293179B8DED0A7B68
:10421000083B9DED007B1793379B8DED107B9B44F6
:104220009DED067BF1E50A9B32930B9B03F1004366
:104230003393DDE91401D4E90023FDF71BFA0246AC
:104240000B46DDE93201FDF75DF8109B3493119BBD
:1042500003F1004341EC180B3593DDE91401D5E976
:104260000023FDF707FA02460B46DDE93401FDF7AE
:1042700049F8B0EE481AF0EE681A41EC100B9DEDCB
:10428000082B47EC136B4146484634E6000000001B
:104290002DE9F04F8BB0CDE906014C1CDFF8F0B0F2
:1042A000E40005464FF000084FF0000A079B9845D0
:1042B0000FDB069BA4F1080903EB0907B8460125AB
:1042C000079BAB425CDD069B05930023049701939B
:1042D00043E0D5E900670022002330463946FDF768
:1042E00031FC002847D132463B4650465946FDF73F
:1042F000EBFA08F10108C5E900012544D6E7DBE93E
:104300000023F6E80201FDF7B5F902460B46DDE9A8
:104310000201FCF7F9FFCDE902010AF1010ACB44E1
:10432000AA45ECDBD8F808300893D8F80C3003F134
:1043300000430993DDE90801DDE90223FDF79AF95D
:10434000049BE3E802010493019B01330193059B65
:1043500023440593019B9D4209D0DDE9043B9FED79
:104360000A7BDDF804A08DED027B1E46D8E70135FF
:104370004F44A044A4E74FF0FF300BB0BDE8F08FEE
:104380000020FAE7AFF3008000000000000000000A
:104390000000F03F000000002DE9F04F87B00D460F
:1043A0000390FFF775FF00283BDB039F4FEAC50A28
:1043B0000024AC423ADAE3000593039B029703EB37
:1043C000C409002621E0059B08EB0301049B43443C
:1043D000D3E90023D1E90001FDF74CF902460B4671
:1043E000DDE90001FCF790FF0BF1010B5D45CDE924
:1043F0000001D044E7D1029BE3E802010136B44258
:10440000C9E900010293D14408DB9FED097BF30069
:104410008DED007B0493B846A346D4E7013457449E
:10442000C7E74FF0FF3007B0BDE8F08F0020FAE794
:1044300000000000000000002DE9F04F99B0012AB3
:1044400003908B46144607DC7D4B0022C1E9002314
:10445000002019B0BDE8F08F022A0CD17849002065
:1044600000220023CBE90001CBE90223CBE90401C0
:10447000CBE90623ECE7900025F0D4FE0590002858
:1044800000F0D480039B049003EBC4030B93A31EA2
:10449000E50017930B9B0E9305F1080310930BEBAC
:1044A000041306930F930B9B07930026049B079F0F
:1044B0009FED617BB246013643F8046F4FEAC609AF
:1044C0008DED087B0493A9F108031493B046A04531
:1044D00042DB049B1A68B2420BD003983146234654
:1044E00027F0EDFF049A009412680398314627F0F4
:1044F000CDFF0E9BEB1811939846039B4B441593ED
:104500000F9B0AF10207A7420A933FDBDDE90F3256
:1045100013440F93079B13440793179B9E4218DB8A
:104520000B9E02272E447A1E3046069927F091FDF5
:10453000069B01372B44BC422E440693F3DC0398C0
:10454000059A23465946FEF7CFFD05982AF064FFE9
:104550007EE7119B0E93A9E73B6812937B6823F0DB
:1045600000431393DDE91201DDE90823FDF712FB97
:1045700040B1049BC3F800803B6808937B6823F03C
:10458000004309932F4408F10108A0E7149B08EBAE
:104590000301079BD1E90001D3E90023FDF794F95A
:1045A000CDE9080105EB0803DDF838A01693C146F4
:1045B00099ED007BDDE90823FAE802018DED0C7B23
:1045C000FDF758F80B460246DDE90C01FCF79AFEB0
:1045D000E9E80201169B4B45EAD19DED087B0A9B59
:1045E000DDF8549083ED007B039B03EBC7030C9332
:1045F0004FF0000A0C9BDDE90801D3E90023FDF729
:1046000039F80B460246D9E90001FCF77DFE0C9B08
:104610000AF1010A2B445445C9E900010C93A9444D
:10462000E8D10A9BA84401372B446CE74FF0FF30D8
:104630000FE700BFAFF300800000000000000000A3
:104640000000F03F000000002DE9F04F824F834D45
:104650008BB0044619B34FF6FF733B802B68B3F958
:104660001A30002BC0F29780062016F0A3F938B15B
:104670007B4B436102230374002343748374C3742C
:10468000784900234FF4865229F0D2FB10F020F82D
:104690004FF0FF300FF0FEFF10F038F87BE0724A69
:1046A000B2F90030108083421FBF70490B7823F0AD
:1046B00008030B702AF086FE6D4BC3E900012B68DE
:1046C000D3E90A016B4BC3E90001B7F900300133AC
:1046D00005D13C802AF076FE674BC3E900012B68C8
:1046E000B3F91A30002B54DA002C52DD082016F0F2
:1046F00061F9064680B1614B43612046FCF750FFEB
:104700005F4B0022FDF7E0F80423C6E9060133748D
:1047100000237374B374F3743046524900234FF48A
:10472000035229F085FB20460FF0B4FF2B68B3F944
:104730001A60A6F16402944232DA0A2016F03AF9BD
:104740000546C8B14F4B43613046FCF729FF4C4B3F
:104750000022FDF7B9F8C5E906012046FCF720FF65
:10476000474B0022FDF7B0F80623C5E908012B747A
:1047700000236B74AB74EB7400234FF44252284651
:10478000384929F055FB0FF0A3FF20460FF082FFB8
:1047900001E0002CCADA0BB0BDE8F04F04F082B99A
:1047A00006F1640294422BDD0C2016F003F9054655
:1047B000D8B1354B4361354B83613046FCF7F0FE91
:1047C0002F4B0022FDF780F8C5E908012046FCF7D1
:1047D000E7FE2B4B0022FDF777F80823C5E90A0115
:1047E0002B7400236B74AB74EB7428461D490023B3
:1047F00044F2400229F01CFB0FF06AFF204649E713
:10480000B3F9186006F164039C4243DD0C2016F0F6
:10481000D1F80546D8B11E4B43611C4B836130462D
:10482000FCF7BEFE164B0022FDF74EF8C5E9080165
:104830002046FCF7B5FE124B0022FDF745F8082391
:10484000C5E90A012B7400236B74AB74EB7400236D
:1048500044F2400293E700BFC40B00202807002069
:10486000715603008CFD0200C60B0020015400208D
:104870005020002048200020402000207F560300C8
:10488000000059409C560300D9560300BD58030050
:1048900017570300B7F90030581C7CD0643B9C428A
:1048A00079DADFF88CA22AF08DFDDAE90023801A8C
:1048B00061EB0301984B984271F100016BD22AF031
:1048C00081FDDAF80030B7F900B0DAF804A00093FF
:1048D00081460E20884616F06DF80546002848D01F
:1048E000009B8E4AB9EB030668EB0A03A6FB02673E
:1048F00002FB03778A4B4361A4EB0B00FCF750FEED
:10490000884B0022FCF7E0FFF60B46EA4746FF0B18
:10491000CDE9000130463946FCF776FE7CA3D3E9A9
:104920000023FCF7D1FF02460B46DDE90001FCF74E
:10493000CBFFC5E906015846FCF732FE794B002251
:10494000FCF7C2FFC5E908012046FCF729FE754BBC
:104950000022FCF7B9FFC5E90C67C5E90A014FF071
:10496000000A0A232B7485F811A085F812A085F897
:1049700013A000236C4945F2C002284629F058FADA
:104980000FF0A6FE20460FF085FE684B1C80684B9A
:10499000C3E90098FFE62B68B3F91A20A242B3F9E5
:1049A0001820C8BF5C836FF495710A4494427CDA86
:1049B000B3F930306FF4F97213449C4275DA204633
:1049C000FCF7EEFD574B0022FCF77EFF0646082061
:1049D0000F4615F0EFFF48B1564B4361C0E906673B
:1049E00004230374002343748374C37400234E4967
:1049F0004FF4035229F01CFA2B68B3F91830A3F2D4
:104A00001F339C4248DA082015F0D4FF48B14A4BC6
:104A10004361C0E90667042303740023437483746D
:104A2000C37400234FF403523F4929F001FA04F202
:104A3000F3140FF019FE4FF4FA73B4FBF3F42B6880
:104A4000D3E90A26D3E90E73D71B66EB0306B7F545
:104A5000160F76F100032BD20A2015F0ABFFA8B198
:104A6000364B4361364BC0E906342C4CA7FB04237C
:104A700004FB0633D20B42EA4342DB0B0021C0E9C0
:104A800008230623037441748174C17426490023EA
:104A90004FF4415229F0CCF92B68D3E90A011A8E60
:104AA000C3E90E01A2F5FA721A860FF0DDFD72E677
:104AB0000934A4B2202202A9204611F0E1FCBDF87D
:104AC0000830059A0133ADF80830049BDB1946EB3A
:104AD0000202CDE90432DDE906329F4276EB0201A3
:104AE00001D3134301D1CDE90676089BBB42099B54
:104AF00002AAB3414FF000014FF02003204638BF17
:104B0000CDE9087611F080FC0E4B00221A70C3E745
:104B100000000000389C8C4101001E0040420F0044
:104B200055570300000059408CFD0200C40B0020C3
:104B300040200020A1570300B6570300CE570300C2
:104B4000AD580300015400202DE9F04F054687B011
:104B5000214FBB68029304AA5B680021384698473E
:104B6000002832DBDDE9044B1C4BDFF87490A4FB1A
:104B7000031203FB0B28039115A3D3E90023084676
:104B80004146FDF7EFF8039B4FF0FF3A9A4579EB6A
:104B90000803064619D3A5FB044305FB0B3529463C
:104BA0000BA3D3E900232046FDF7DCF8A24579EBFF
:104BB0000505034609D3864207D300220092029AD4
:104BC0000021146838463246A04707B0BDE8F08F90
:104BD00000CA9A3B000000002CF8020040420F007F
:104BE000FFC99A3B000000002DE9F04F9FB08246BC
:104BF000039117461C460025387810B9284600F066
:104C0000A6BD252809D00399D0470028C0F29F856A
:104C10007B1C01350593059FEEE71822002110A8A3
:104C20002AF049FC7B78252B00F0BC800023791CFE
:104C300098469E469C4618460E4611F8012B2B2A94
:104C400000F0E38000F2DA80202A00F0E180232ADD
:104C500000F0E1802BB19DF8483043F040038DF81F
:104C60004830B8F1000F05D09DF8483043F02003DC
:104C70008DF84830BEF1000F05D09DF8483043F064
:104C800010038DF84830BCF1000F05D09DF8483076
:104C900043F008038DF8483028B19DF8483043F0C0
:104CA00004038DF848309DF8483003F0440144294E
:104CB00003D16FF386138DF848309DF848300E9677
:104CC00043F080032A2A8DF8483040F0A9809DF8EF
:104CD000493043F001038DF84930731C1A782E2AAD
:104CE0009DF849200CBF0121002161F341028DF89C
:104CF00049200CD15A1C0E925A782A2A40F0A080E2
:104D00009DF8492042F004028DF8492002331A78B8
:104D10006C2A00F0C18000F2A380682A00F0A9800C
:104D20006A2A00F0C2804C2A00F0C78013F8012BD9
:104D30000593782A8DF84B2000F209816D2A00F244
:104D4000C980692A00F20381572A00F2E280412AD1
:104D500004D0A2F14503022B00F2F9809DF84A30FD
:104D600002F0DF020421A2F1410961F30203D9F14B
:104D700000029DF849108DF84A3042EB090262F3B7
:104D8000C7110A068DF84910CBB200F11F8103F05C
:104D90007802182A40F009816FF3C6038DF8493074
:104DA0000023F8E08DF84B30BB1C05939DF849308B
:104DB0009DF84A20DE0702F0070040F1098154F80F
:104DC000041B0491002908DA9DF8481041F0040101
:104DD0008DF84810049949420491590740F1008127
:104DE00054F8046B002E80F2FF809DF849306FF379
:104DF00041038DF849304FF0FF36F5E02D2A0DD0F4
:104E0000302A7FF427AF012316E74FF0010C13E798
:104E10004FF0010E10E74FF001080DE701200BE7FE
:104E20000EA814F0CBF80E9BB3423FF457AF9DF899
:104E300048201390C00F60F341028DF848204DE7E1
:104E40000EA814F0BBF89DF848301490C3F340024C
:104E500042EAD07262F341038DF848300E9B56E768
:104E6000742A26D07A2A7FF461AF9DF84920062162
:104E70000CE05A78682A9DF8492006D1012161F397
:104E8000C6028DF84920023350E7022161F3C602C1
:104E90008DF84920013349E75A786C2A9DF849205A
:104EA00001D10421EBE70321F0E79DF8492005211A
:104EB000ECE79DF849200721E8E7BDF8482022F4F7
:104EC000F04222F0020242F4804242F00202ADF8C7
:104ED0004820DFE76E3AD3B201229A4040F2824383
:104EE0001A429DF8493039D112F0240F61D1D1070F
:104EF0002DD59DF84A2003F07803A3F14008032143
:104F000061F30202D8F100038DF84A2043EB080355
:104F100041E0A2F15801C9B2012000FA01F111F4F7
:104F2000624F7FF41BAF40F6010319429DF84930F0
:104F30001AD111F4043F0AD09DF84A2060F302020E
:104F400003F07803402B8DF84A207FF429AF9DF8B9
:104F5000483043F001038DF8483021E79DF84A209E
:104F6000022161F30202EBE79DF84A10022003F0F0
:104F7000780360F30201402B8DF84A1002BF9DF8C0
:104F8000481041F001018DF84810632A7FF408AF02
:104F9000003B18BF01239DF84820C2F340010B439A
:104FA00063F341028DF8482000E713F0380FCED1AB
:104FB000F6E69DF84A20032113F0780F61F3020210
:104FC0008DF84A2014BF01230023E4E70123E2E720
:104FD0009DF948100029B4BF13994FF0FF31FBE64B
:104FE0009E077FF508AF149E00230428CDE91333F4
:104FF0009DF8493007D1990705D49DF9491000293A
:10500000ACBF06260D2602F00702012AC3F3C30334
:1050100032D1DA1E042A04D8DFE802F02045452008
:1050200020002268012B4FEAE271CDE910211BD14B
:105030009DF94020D117CDE9102104349DF8482076
:10504000069292074FD0059B03993A46504628F0A6
:1050500020FA0028C0F27B830544DCE554F8042BD9
:10506000D117CDE91021E9E7022BE6D111B242F3C5
:10507000C032CDE91012E0E7022A24D1DA1E042A58
:1050800004D8DFE802F0181010181800012B54F8AB
:10509000042B4FF0000114D0022BCDE91021CDD10B
:1050A00092B21092CAE7073424F00704F4E8020130
:1050B000CDE91001C2E754F8042B1092002211929E
:1050C000BCE7D2B2CDE7042A08D1073424F00704A4
:1050D000D4E900010834CDE91001AFE7032AADD1CE
:1050E00054F8042BDDE79DF84B80B8F1780F3FF6BC
:1050F00092ADB8F1570F5CD8B8F1250F00F0A4803D
:10510000B8F1240F7FF687ADB8F1410F04D0A8F1B4
:105110004503022B3FF67FADDDE91023002BC0F2E3
:105120004D810699080700F14C81C1F300194FEA3F
:105130004919C3F30A51C3F31303002940F0448112
:1051400052EA030014BF4FF0010C4FF0000CD802DC
:1051500040EA5250D702CDE90C70B8F1460F47EA49
:10516000010740EAE17008BF4FF06608384300F0DD
:10517000B881BCF1000F10D01B0343EA1253170390
:105180003A4618464FF0000C002880F25681BCF1D8
:10519000000F40F05981CDE90C730D9B43F00043A3
:1051A000A1F2FE3B0D930021DDE90C230F46052003
:1051B00060E1A8F15802202A3FF62DAD01A151F877
:1051C00022F000BF8F530000174C0000174C000066
:1051D000174C0000174C0000174C0000174C000043
:1051E000174C0000174C000019510000174C00002C
:1051F0003B5300004F5300001951000019510000AB
:1052000019510000174C00004F530000174C0000CC
:10521000174C0000174C0000174C0000955300007D
:105220008F530000DF520000174C0000174C0000A5
:1052300059520000174C00008F530000174C00001B
:10524000174C00008F53000003994046D0470028B8
:10525000C0F27D820135DEE4002E109F3BDB31463B
:1052600038462AF050F9002F3FF4D5AC3E18F31B16
:105270004FF000099DF84A2012F01001069100F04D
:105280005B82023312F04002DDF84C80089218BFB6
:10529000149ACDF81C80434418BF9B18049A002A26
:1052A00040F36582D31A9DF8482004935007C2F357
:1052B000800B00F15C82510640F14C82B9F1000F85
:1052C00007D003994846D0470028C0F240820135F4
:1052D000D94630223FE23846FCF7A7FDC6E71098D2
:1052E000002800F024820DF17503009312AA17AB79
:1052F000002113F079FEBDF84A3003F0EF0343F4C8
:10530000F04343F010030746ADF84A304FF0000970
:10531000002E0CDB9DF848200DF17503DB1B6FF3AD
:1053200086129E428DF8482001D9F31A1393002F5C
:105330003FF471AC0DF175066DE0109B8DF85C309B
:105340004FF000090DF15D0617AF012392E7069BB0
:105350001F0758BFC3F30019DDE9102354BF4FEAFC
:1053600049194FF02B09002B06DA524263EB430335
:10537000CDE910234FF02D090DF175030093DDE900
:10538000100117AB12AA13F02FFE0746C0E74FF02B
:105390000009F1E7109A072B3FF63DACDFE803F078
:1053A0000C04060C08080C0C157034E4158032E46B
:1053B000EB17C2E900532EE415602CE44FF02D09E1
:1053C000B7E64FF02B09B4E640F2FF70814231D1CD
:1053D00008F10108A2495FFA88F8134311F8081090
:1053E00001F003011ED101290BBF492369234E217E
:1053F0006E210CBF462266228DF85C309DF8483045
:105400008DF85D106FF386138DF85E208DF84830AF
:105410000DF15F0617AFF31BB9F1000F3FF42AAF90
:10542000013327E7012915BF6E234E236121412156
:105430001A46E1E74FF0000C89E6921801F1FF31BE
:1054400040414FF0010C9FE6CDE90C20A5E6520843
:1054500042EAC3725B08B3F1333F59460BF1010BCB
:10546000F5D200FB03FCA2FB002301F1020B634415
:10547000013F01211BF1020FE9DB09B1CDE90C234A
:10548000BBF1000FDDE90C322EDCCBF10401A1F100
:1054900020000BF11C0B02FA0BFB22FA00F0CA40B1
:1054A000CB40079208F0DF0243EA0B03472A43EAA6
:1054B00000037DD1F91C01DBBE422BDAA8F1020802
:1054C000002E5FFA88F87CDD9DF84820920606F1F0
:1054D000FF3676D4B6F1000B18BF4FF0010B721CEB
:1054E00027E04FF0000B5EE6023342F100020CA809
:1054F000CDE90C3227F09EFFDDE90C320BF1FF3BCA
:105500000137DB185241002A0BF1FF3BF9DACDE9F4
:105510000C32B5E79DF848209006A6EB07064DD45F
:10552000B6F1000B18BF4FF0010BF2194FF06608EF
:105530004AD4102AA8BF10229FED477B8DED0E7B29
:1055400010200B90DDE90E01002A3FD1079A1B18AD
:1055500042EB0101B1F1805F47D2CDE90C31069BEE
:10556000B8F1660F03F0200240F0C180002F47DC45
:1055700030238DF85C30002A74D1002E40F3BA81BC
:105580002E238DF85D3087B17B42B342A8BF3346EE
:105590009DF84A201393002BA6EB0306D4BF0023EB
:1055A000012363F345128DF84A200DF15E0340E0BC
:1055B000B8F1660F4FF0000BB7D090E74FF0000B3B
:1055C000B3E74FF0000B8AE70022B5E7400840EA56
:1055D000C1704908CDE90E010EA8CDE9082327F0D6
:1055E00029FF089A099B013AACE75B0843EAC173BB
:1055F0000CA84908CDE90C31013727F01BFFAEE7B5
:1056000017AB0B9900290BDD0BA90CA8CDE90632CD
:1056100027F028FF069B079A03F8010B013FF0D102
:105620001397AAB9002E40F363812E2103F8011BC2
:105630000027002E1FDD0B9A002A1CDD0BA90CA8E9
:10564000069327F00FFF069B013E03F8010BF0E7DE
:105650002E2203F8012BEBE70000000000000008F9
:10566000A58503002E238DF85D30002F9DD0002EE0
:105670008ADC0DF15E03BBF1000F4CD114961E467F
:1056800008F0DF03452B21D1002FBABF7F422D2325
:105690002B23632FC8BF64227370C2BFB7FBF2F322
:1056A00003F1300102FB13774FF00A0286F8008005
:1056B000CABFB17002360336B7FBF2F303F1300113
:1056C00002FB13733033317073700236139B002B5F
:1056D0002BDC149B002BD4BF002301239DF84A2010
:1056E00063F3861200238DF84A20337092E60BA9EB
:1056F0000CA8069227F0B6FE069A8DF85C003028BA
:1057000018BF07F1FF3712B9002E40F3F3802E23A4
:105710008DF85D3049E71E46013B16F8012C302A12
:10572000F9D02E2A08BF1E46AAE70123D6E7734EFA
:105730008146771F05239DE5110748BF0133A1E589
:10574000104609920399D0470028099A05DA1FB03C
:10575000BDE8F08F2022DDF810B0594600290BF18A
:10576000FF3BEDDC049BCDF810B02B445D1AB9F182
:10577000000F05D003994846D0470028E7DB0135E4
:10578000089B002B79D09DF94930002B29DBDFF8ED
:1057900070913B46187819F8002052079B4603F198
:1057A00001033FD49DF84A30EF1B98065F4407D4AD
:1057B0004246002A08F1FF383BDC079B3B449F1A16
:1057C0009BF800002E280AD10399D0470028BEDBA1
:1057D000B8F1000F07F1010731DC0BF1010B5D4659
:1057E00038E0B94699F800007028C84609F1010967
:1057F00013D1EF1B149D47443D44EB1B002B34DCBD
:10580000039933464246504627F043FE00289EDB6C
:105810003844049E0546064465E00399D0470028B5
:10582000E0DA94E706930399D0470028069BB1DAA3
:105830008DE703993020D0470028B9DA87E703992C
:105840003020D04708F1FF38C0E70399D04700283F
:10585000FFF67DAF287819F800305907A84605F102
:105860000105F2D4A7EB0B07C4E703993020D0471A
:105870000028FFF66CAF0137BFE79DF84A30DA0623
:1058800001D41B0706D503993020D0470028FFF626
:105890005EAF0135069B3BB103999DF84B00D047A5
:1058A0000028FFF654AF0135A84406E003993020E4
:1058B000D0470028FFF64BAF0135A8EB0503002BBE
:1058C000F4DC039933463A46504627F0E2FD0028BF
:1058D000FFF63DAF28449CE703992020D0470028DD
:1058E000FFF635AF0135731B002BF5DCFFF793B9DD
:1058F0001746C0E60DF15D03BDE600BFA4600300DE
:10590000A6850300000000002DE9F04F0029D0F823
:105910001080446889B000F38880D8F80030D4E95A
:105920000069002B4ED1A389A5680593B36806AA28
:105930005B68494630469847071E19DBDDE9067B60
:10594000A5FB072305FB0B3303920293DDE902104D
:1059500037A3D3E90023FCF705FA039B029A0490CE
:105960004FF0FF3A9A45344B934105D26FF08507CB
:10597000384609B0BDE8F08F6B08A3FB075703FB5F
:105980000B7728462AA3D3E900233946FCF7EAF926
:10599000294AAA45BA410346E8D30499B268994214
:1059A00043D3059900911568049A49463046A847A3
:1059B00007460028DCD1208A29F012FC012388F850
:1059C0000430D5E7B36806AA5B6849463046984775
:1059D00007460028CCD10346D8F80020DDE90601AF
:1059E000FCF7C0F91A4310D0062014F0E3FF30B1E1
:1059F000124B43610223037447748774C7741049C0
:105A000000234FF4845228F013FAD8F80020DDE97F
:105A100006010023FCF7A6F9A5890246D4E9000196
:105A2000836800951D685308C1E76FF015079FE76D
:105A300000CA9A3B00000000FFC99A3B6877030048
:105A4000ACFD02000000000038B52DED028B55ECD6
:105A5000104B00F04DFA224BB0EE408AF0EE608A17
:105A600093F90030013312D045EC104B29F0FAFCC9
:105A700068B113A3D3E9002320462946FCF78AF82E
:105A800060B128F05FFC9FED108B22230360B0EE25
:105A9000480AF0EE680ABDEC028B38BD0CA3D3E9CE
:105AA000002320462946FCF757F80028EFD028F0BD
:105AB00049FC22239FED088B0360E8E7AFF30080E9
:105AC000EF39FAFE422E8640000000000000F07F11
:105AD00051302DD5104987C00000000000000000A3
:105AE000690C0020000000002DE9F04F55EC104B30
:105AF000C74B87B025F000469E4201952DD906F18F
:105B0000404606F58016264316D1A7A3D3E9002305
:105B100020462946FBF7AEFDA5A3D3E900230646A0
:105B20000F4620462946FBF7A5FD02460B463046A8
:105B30003946FBF7E9FB09E022462B462046294679
:105B4000FBF7E0FB02460B46FBF7BEFE04460D46A4
:105B500045EC104B07B0BDE8F08FAE4B9E4210D81D
:105B6000B6F1795F80F0AD8093A3D3E9002320469E
:105B70002946FBF7C9FBA84B0022FCF70BF80028CD
:105B8000E6D145EC104B29F065FCA34953EC102BF2
:105B90000020FBF7B7FBA14B0022FBF76BFD88A3AE
:105BA000D3E9002304460D46FBF764FD86A3D3E941
:105BB0000023FBF7A9FB22462B46FBF75BFD84A3E2
:105BC000D3E90023FBF79EFB22462B46FBF752FD51
:105BD00081A3D3E90023FBF797FB22462B46FBF773
:105BE00049FD7FA3D3E90023FBF78CFB22462B461C
:105BF000FBF740FD7CA3D3E90023FBF785FB22469E
:105C00002B46FBF737FD7AA3D3E90023CDE9020148
:105C100020462946FBF72EFD77A3D3E90023FBF7A7
:105C200071FB22462B46FBF725FD75A3D3E9002324
:105C3000FBF76AFB22462B46FBF71CFD72A3D3E958
:105C40000023FBF75FFB22462B46FBF713FD724B4D
:105C50000022FBF759FB45EC104BCDE9040124F081
:105C6000C1FD6F4B9E425BEC10AB40F2DB80DDE987
:105C70000423DDE90201FBF727FE52465B46FBF7F2
:105C8000F9FC52465B46FBF73FFB02460B46FBF72F
:105C90003BFB47A3D3E90023FBF734FB02460B464B
:105CA00041A1D1E90001FBF72DFB019B002BDCBFDB
:105CB000024601F1004304460D46DCBF14461D4672
:105CC00046E722462B4620462946FBF7D3FC3CA359
:105CD000D3E9002306460F46FBF7CCFC3AA3D3E9F1
:105CE0000023FBF711FB32463B46FBF7C3FC38A30E
:105CF000D3E90023FBF706FB32463B46FBF7BAFC31
:105D000035A3D3E90023FBF7FFFA32463B46FBF706
:105D1000B1FC33A3D3E90023FBF7F4FA32463B4648
:105D2000FBF7A8FC30A3D3E90023FBF7EDFA3246DA
:105D30003B46FBF79FFC2EA3D3E900238046894610
:105D400030463946FBF796FC2BA3D3E90023FBF73B
:105D5000D9FA32463B46FBF78DFC29A3D3E9002351
:105D6000FBF7D2FA32463B46FBF784FC26A3D3E985
:105D70000023FBF7C7FA32463B46FBF77BFC264B7A
:105D80000022FBF7C1FA02460B4640464946FBF7A4
:105D90009BFD22462B46FBF76DFC02460B46204638
:105DA0002946C6E6AFF30080182D4454FB21F93F85
:105DB000075C143326A6913C9C7500883CE4377E32
:105DC00009F7FD0DE13D023F88B20175E0EF493F63
:105DD0003B8F68B52882A43F5544880E55C1C93F02
:105DE0007D6FEB0312D6D43F555555555555C53FDC
:105DF00082922EB1C5B8B33F59018D1B6C06E63FA8
:105E0000C88A599CE52A00404B2D8A1C273A03403A
:105E1000FFFFEF3FFFFFDF3F0000F03F0000E03FEC
:105E20003233EF3F52465B4650465946FBF76CFA19
:105E3000DDE9042306460F46DDE90201FBF744FDD8
:105E400002460B4630463946FBF714FC4FF000087B
:105E500006460F4642465B4640465946FBF70AFC5B
:105E600002460B4620462946FBF74CFA42460446BA
:105E70000D465B4650465946FBF746FA02460B462E
:105E800020462946FBF720FD02460B46FBF73CFA6D
:105E900002460B4612A1D1E90001FBF733FA024694
:105EA0000B4630463946FBF72DFA424604460D466E
:105EB0005B4640465946FBF727FA02460B460AA1C5
:105EC000D1E90001FBF71EFA02460B46204629469F
:105ED000FBF718FA02460B4603A1D1E90001E2E6FE
:105EE000075C143326A6913C182D4454FB21E93F4E
:105EF0002DE9FF4755EC104BAD4925F000428A4291
:105F00004FEAD57633D9AB498A4214D892A3D3E964
:105F1000002320462946FBF73DFE00BB90A3D3E9B2
:105F2000002320462946FBF717FE002800F0A0803A
:105F3000002400250EE0C5F313032343224607D0B7
:105F40002B4620462946FBF7DFF904460D4601E0C3
:105F5000002EEDD145EC104B04B0BDE8F08782A3D4
:105F6000D3E9002310461946FBF784FBEDE7924B7B
:105F70009A4240F2A980914B9A4279D8904B03EB18
:105F8000C603D3E9002320462946FBF7BBF98D4B16
:105F9000F7003B4493ED007B8DED007BC6F1010AD9
:105FA00080468946AAEB060ADDE9002340464946B9
:105FB000FBF7A8F904460D4622462B462046294603
:105FC000FBF758FB6AA3D3E9002306460F46FBF70D
:105FD00051FB69A3D3E90023FBF794F932463B4612
:105FE000FBF748FB66A3D3E90023FBF78DF93246A4
:105FF0003B46FBF73FFB64A3D3E90023FBF782F9A1
:1060000032463B46FBF736FB61A3D3E90023FBF79F
:106010007BF932463B46FBF72DFB02460B462046FA
:106020002946FBF76FF902460B4606460F46204607
:106030002946FBF71FFBCDE90201BAF1000F5CD145
:1060400000224FF0804330463946FBF75BF90246A9
:106050000B46DDE90201FBF737FC22462B46FBF736
:1060600051F902460B4600205749FBF74BF96CE704
:10607000564B204603EBC606294647A3D3E9002327
:10608000FBF7F8FAD6E90023FBF73EF9FBF7A2FD90
:106090008246FBF785FA42A3D3E9002306460F4662
:1060A000FBF7E8FA02460B4620462946FBF72AF999
:1060B0003DA3D3E900238046894630463946FBF7A5
:1060C000D9FACDE900016FE7414B9A4210D826A3D7
:1060D000D3E9002320462946FBF716F93A4B002264
:1060E000FBF758FD38B1384B0022204629462AE7F5
:1060F0004FF0000A60E782465EE732463B460020EA
:106100004FF08041FBF7FEF802460B46DDE9020145
:10611000FBF7DAFB02460B46DDE90001FBF7F2F87C
:1061200042464B46FBF7EEF802460B460020264956
:10613000FBF7E8F86FF47F72924502DB01EB0A513E
:1061400003E70AF57A7A01EB0A5100224FF0B8739F
:106150000AE700BFAFF30080EF39FAFE422E864017
:1061600051302DD5104987C09C7500883CE4377E9E
:10617000D0A4BE726937663EF16BD2C541BDBB3E4D
:106180002CDE25AF6A56113F93BDBE166CC1663F2B
:106190003E5555555555C53FFE822B654715F73F72
:1061A0000000E0FE422EE63F763C7935EF39EA3DCD
:1061B000412E8640FFFFEF7F422ED63FB1A2F03F37
:1061C00008000300F8FF02000000F03F1800030081
:1061D000FFFF2F3E000000009FED010B704700BF46
:1061E000000000000000F87F2DE9F043DFF88CC0CC
:1061F0001F4C204E204FDFF888E000230125206847
:1062000005FA03F802881FFA88F1114207D116F83F
:1062100003904288B9F1000F23D00A4342802268DC
:106220009088014207D117F80390D088B9F1000F88
:106230001AD00843D0801089014202BF02EB43000C
:106240003CF81380A0F80A80508D014202BF02EB97
:1062500083025EF82310D1620133102BCFD1BDE849
:10626000F08322EA0802D9E720EA0800E2E700BF4B
:1062700024070020FF0F0300EF0F0300D40C0300DE
:106280002800030030B40E4A156801232C8803FA55
:1062900000F083B21C432C80126861B151880B431B
:1062A0005380084B1A6830BC802302F55F720021CE
:1062B0001E2010F0A9B8538823EA0003F0E700BFBE
:1062C000240700202807002010B4012303FA00F05F
:1062D0000B4B1A68938884B223439380D38861B1AF
:1062E0002343D380074B5DF8044B1A6800218023B9
:1062F00002F55F721E2010F087B823EA0003F0E772
:10630000240700202807002010B40A4B1B68012234
:106310001C89824022431A8103EB40031E205981CD
:10632000054B5DF8044B1A680021802302F55F726B
:1063300010F06AB8240700202807002010B40A4B88
:106340001B6801225C8D824022435A8503EB800347
:106350001E20D962054B5DF8044B1A68002180238A
:1063600002F55F7210F050B82407002028070020C3
:10637000012310B503FA01F1032809D8DFE800F082
:1063800002151C23134B1A68138823EA0103138098
:10639000FFF72AFF104B1A68BDE81040802302F572
:1063A0005F7200211E2010F02FB80A4B1A689388E4
:1063B00023EA01039380EBE7064B1A68138923EA6B
:1063C00001031381E4E7034B1A68538D23EA0103A9
:1063D0005385DDE7240700202807002070B5194DFC
:1063E0002B782BB9184827F001F801232B7070BDCA
:1063F000164826F0FBFF164B1A68002414801B6811
:106400009C801C815C85FFF7EFFE124B1A681E20F2
:10641000802302F55F7221460FF0F6FF06202C70F4
:1064200014F0C8FA30B10C4B436102230374447476
:106430008474C474BDE87040084900234FF4865248
:1064400027F0F6BC22520020100D0300900D03002F
:106450002407002028070020AB0D0300B4FD020034
:10646000014821F0DBBA00BF040D0020014B187079
:10647000704700BF42520020102898BF0A4B0B4AB9
:1064800094BF1B5C0023002913700ADB084B1B68B8
:10649000DB8813F0080F14BF02230123054A137091
:1064A00070470023FAE700BF251003003E5200208A
:1064B000240700203D52002070B59FED100A0D46C4
:1064C0000F49044626F01CFA0E4B187023460C4C5C
:1064D00003F1100618685968224603C20833B34214
:1064E0001446F7D128686968074B03C3A868186089
:1064F00025F0E5FA054BC3E9000170BD0AD7A33BBF
:10650000A8330020245200209C33002008160020CD
:1065100008B50246054B0068516803C390681860CF
:1065200025F0CDFA024BC3E9000108BD90330020ED
:1065300000160020DFED137AB4EEE70AF1EE10FA50
:1065400082B01AD4DFED107AB4EEE70AF1EE10FA59
:1065500015DCF3EE097A30EE670ADFED0C7A30EEE7
:10656000000A30EE270AFCEEC07ACDED017A9DF8E4
:106570000430074A137002B070470123F9E7FF2384
:10658000F7E700BF00001AC20000B14200800043DC
:106590003F520020014BC3E900017047480500202D
:1065A00030B5039C124D20B928700023114A137096
:1065B00030BDAAB96422B3FBF2F363F07F03DBB210
:1065C0002B700A2271B141F2D603A342B8BF234611
:1065D000B3FBF2F3F53BFF2BD4BFDBB2FF23E5E7C0
:1065E000FF23EDE794FBF2F3F53BDED4F3E700BFC6
:1065F0004152002040520020044B10F0050F18704B
:10660000034B0CBF012203221A7070473C5200203A
:10661000F80B002008B5044B187025F050FA034B16
:10662000C3E9000108BD00BF3B520020F015002067
:10663000014B01221A707047235200207FB52D4B69
:1066400000241B780394CDE900448DF801302A4BD7
:106650001B788DF80230294B1B788DF80330284BBE
:106660001B788DF8043018238DF8053009238DF838
:106670000630244B1B788DF80830234B1B788DF89F
:10668000093040F66D43ADF80A30204840F6CD425F
:10669000002321F00DF9A0B1082014F08BF940B1CE
:1066A0001B4B43611B4B8361032303744474847449
:1066B000C474194900234FF4C25227F0B9FB04B047
:1066C00070BD6C46154A04AE2546234603CBB34243
:1066D000106051601C4602F10802F6D125F0EFF976
:1066E0000F4BC3E90001FFF7BBFE284601F090FF06
:1066F000E5E700BF425200204152002040520020F6
:106700003F5200203E5200203D520020040D002048
:106710000F100300EC100300BCFD02002652002005
:10672000F01600207FB58C4ADFED8C6AD2ED017A3D
:106730009FED8B7A012367EEA67A8DF80030894BA6
:10674000F4EEC77A1B788DF80130F1EE10FA00F301
:10675000C0809FED856AF4EEC67AF1EE10FA00F182
:10676000BB80FDEEE77A17EE903A9BB2D2ED027A4B
:10677000ADF8023067EEA67AF4EEC77AF1EE10FAC1
:1067800000F3AD809FED786AF4EEC67AF1EE10FA70
:1067900000F1A880FDEEE77A17EE903A9BB2D2EDB9
:1067A000037AADF8043067EEA67AF4EEC77AF1EE1C
:1067B00010FA00F39A809FED6C6AF4EEC67AF1EE5F
:1067C00010FA00F19580FDEEE77A17EE903A9BB251
:1067D000D2ED007AADF8063067EEA67AF4EEC77A0D
:1067E000F1EE10FA00F38780DFED5F6AF4EEE67AEF
:1067F000F1EE10FA00F18280FDEEE77A17EE903AA2
:106800009BB25A4ADFED5A6AD2ED007AADF80830F1
:1068100067EEA67AF4EEC77AF1EE10FA71DC9FED1E
:10682000526AF4EEC67AF1EE10FA6DD4FDEEE77A14
:1068300017EE903A9BB2D2ED017AADF80A3067EECE
:10684000A67AF4EEC77AF1EE10FA60DC9FED466AA4
:10685000F4EEC67AF1EE10FA5CD4FDEEE77A17EEAC
:10686000903A9BB2D2ED027AADF80C3067EEA67A80
:10687000F4EEC77AF1EE10FA4FDC9FED3B7AF4EEBE
:10688000C77AF1EE10FA4BD4FDEEE77A17EE903AA4
:106890009BB2ADF80E30374840F6CD42002321F0D0
:1068A00007F800283FD0082014F084F848B1324B94
:1068B0004361324B83610323037400234374837465
:1068C000C3742F4900234FF4C25227F0B1FA04B029
:1068D00070BD47F6FF7349E74FF4004346E747F6BC
:1068E000FF735CE74FF4004359E747F6FF736FE728
:1068F0004FF400436CE747F6FF7382E74FF4004321
:106900007FE747F6FF7396E74FF4004393E747F6B8
:10691000FF73A7E74FF40043A4E747F6FF73B8E718
:106920004FF40043B5E76C46164A04AE25462346AD
:1069300003CBB342106051601C4602F10802F6D14D
:1069400025F0BDF8104BC3E90001FFF789FD28468B
:1069500001F05EFEBBE700BFA83300200000004747
:1069600000FEFF4642520020000000C79C3300207A
:1069700000000043040D00200F100300D21003009C
:10698000BCFD020026520020F016002070B588B031
:1069900002238DF810308E4B8E481B788DF8113005
:1069A0008D4B1B788DF812308C4B1B788DF8133083
:1069B0008B4B00241B78079401A9CDE90544CDE950
:1069C00001448DF81430039410F002F9DDED016AF2
:1069D0009DED027ADDED037AF7EE005A76EEA56AB8
:1069E00037EE257A77EEA57AB6EE006A66EE866A0D
:1069F00027EE067A67EE867A9FED7A6ACDED016A18
:106A000066EE866A9FED786A8DED027AF4EEC66ACC
:106A1000F1EE10FACDED037A00F3A280F5EEC06A34
:106A2000F1EE10FA04D4FCEEE66A16EE903A9CB24F
:106A30009FED6E6ADFED6E6A27EE067AB4EEE67AB7
:106A4000F1EE10FA00F38F80B5EEC07AF1EE10FA95
:106A500000F18C80BCEEC77A17EE103A9AB267EE5E
:106A6000867AF4EEE67AF1EE10FA00F38180F5EE24
:106A7000C07AF1EE10FA7ED4FCEEE77A17EE903A87
:106A80009BB244EA82245B4ADFED5B6AD2ED007A76
:106A90009FED5A7A67EEA67A44EA4354F4EEC77A39
:106AA000F1EE10FACDF8154067DC9FED556AF4EE73
:106AB000C67AF1EE10FA63D4FDEEE77A17EE903A5B
:106AC0009BB2D2ED017AADF8193067EEA67AF4EEFA
:106AD000C77AF1EE10FA56DC9FED496AF4EEC67AF9
